{
  "contractName": "Hotel",
  "abi": [
    {
      "inputs": [
        {
          "internalType": "uint64",
          "name": "_initialPrice",
          "type": "uint64"
        }
      ],
      "stateMutability": "nonpayable",
      "type": "constructor"
    },
    {
      "anonymous": false,
      "inputs": [
        {
          "indexed": true,
          "internalType": "address",
          "name": "from",
          "type": "address"
        },
        {
          "indexed": false,
          "internalType": "uint256",
          "name": "timestamp",
          "type": "uint256"
        },
        {
          "indexed": false,
          "internalType": "uint256",
          "name": "sum",
          "type": "uint256"
        }
      ],
      "name": "AppointmentRefunded",
      "type": "event"
    },
    {
      "anonymous": false,
      "inputs": [
        {
          "indexed": true,
          "internalType": "address",
          "name": "from",
          "type": "address"
        },
        {
          "indexed": false,
          "internalType": "uint256",
          "name": "timestamp",
          "type": "uint256"
        },
        {
          "indexed": false,
          "internalType": "uint256",
          "name": "sum",
          "type": "uint256"
        }
      ],
      "name": "AppointmentScheduled",
      "type": "event"
    },
    {
      "anonymous": false,
      "inputs": [
        {
          "indexed": true,
          "internalType": "address",
          "name": "user",
          "type": "address"
        },
        {
          "indexed": false,
          "internalType": "uint256",
          "name": "timestamp",
          "type": "uint256"
        }
      ],
      "name": "CheckedIn",
      "type": "event"
    },
    {
      "anonymous": false,
      "inputs": [
        {
          "indexed": true,
          "internalType": "address",
          "name": "user",
          "type": "address"
        },
        {
          "indexed": false,
          "internalType": "uint256",
          "name": "timestamp",
          "type": "uint256"
        }
      ],
      "name": "CheckedOut",
      "type": "event"
    },
    {
      "anonymous": false,
      "inputs": [
        {
          "indexed": true,
          "internalType": "address",
          "name": "from",
          "type": "address"
        },
        {
          "indexed": false,
          "internalType": "uint256",
          "name": "sum",
          "type": "uint256"
        },
        {
          "indexed": false,
          "internalType": "uint64",
          "name": "price",
          "type": "uint64"
        }
      ],
      "name": "TokenBought",
      "type": "event"
    },
    {
      "anonymous": false,
      "inputs": [
        {
          "indexed": false,
          "internalType": "uint64",
          "name": "oldPrice",
          "type": "uint64"
        },
        {
          "indexed": false,
          "internalType": "uint64",
          "name": "newPrice",
          "type": "uint64"
        }
      ],
      "name": "TokenPriceChanged",
      "type": "event"
    },
    {
      "anonymous": false,
      "inputs": [
        {
          "indexed": true,
          "internalType": "address",
          "name": "user",
          "type": "address"
        },
        {
          "indexed": false,
          "internalType": "uint256",
          "name": "timestamp",
          "type": "uint256"
        }
      ],
      "name": "generatedOTP",
      "type": "event"
    },
    {
      "anonymous": false,
      "inputs": [
        {
          "indexed": true,
          "internalType": "address",
          "name": "user",
          "type": "address"
        },
        {
          "indexed": false,
          "internalType": "uint256",
          "name": "timestamp",
          "type": "uint256"
        }
      ],
      "name": "keyLocked",
      "type": "event"
    },
    {
      "anonymous": false,
      "inputs": [
        {
          "indexed": true,
          "internalType": "address",
          "name": "user",
          "type": "address"
        },
        {
          "indexed": false,
          "internalType": "uint256",
          "name": "timestamp",
          "type": "uint256"
        }
      ],
      "name": "keyOpened",
      "type": "event"
    },
    {
      "inputs": [],
      "name": "hotelToken",
      "outputs": [
        {
          "internalType": "contract HotelToken",
          "name": "",
          "type": "address"
        }
      ],
      "stateMutability": "view",
      "type": "function"
    },
    {
      "inputs": [],
      "name": "hotelTokenPrice",
      "outputs": [
        {
          "internalType": "uint64",
          "name": "",
          "type": "uint64"
        }
      ],
      "stateMutability": "view",
      "type": "function"
    },
    {
      "inputs": [],
      "name": "owner",
      "outputs": [
        {
          "internalType": "address payable",
          "name": "",
          "type": "address"
        }
      ],
      "stateMutability": "view",
      "type": "function"
    },
    {
      "inputs": [],
      "name": "roomKeyOpen",
      "outputs": [
        {
          "internalType": "bool",
          "name": "",
          "type": "bool"
        }
      ],
      "stateMutability": "view",
      "type": "function"
    },
    {
      "inputs": [],
      "name": "roomPass",
      "outputs": [
        {
          "internalType": "uint32",
          "name": "password",
          "type": "uint32"
        },
        {
          "internalType": "bool",
          "name": "used",
          "type": "bool"
        }
      ],
      "stateMutability": "view",
      "type": "function"
    },
    {
      "inputs": [
        {
          "internalType": "address",
          "name": "",
          "type": "address"
        },
        {
          "internalType": "uint256",
          "name": "",
          "type": "uint256"
        }
      ],
      "name": "userBookings",
      "outputs": [
        {
          "internalType": "uint256",
          "name": "timestamp",
          "type": "uint256"
        },
        {
          "internalType": "uint8",
          "name": "numDays",
          "type": "uint8"
        },
        {
          "internalType": "bool",
          "name": "isCheckedIn",
          "type": "bool"
        }
      ],
      "stateMutability": "view",
      "type": "function"
    },
    {
      "inputs": [
        {
          "internalType": "uint8",
          "name": "_month",
          "type": "uint8"
        },
        {
          "internalType": "uint8",
          "name": "_day",
          "type": "uint8"
        },
        {
          "internalType": "uint16",
          "name": "_year",
          "type": "uint16"
        }
      ],
      "name": "getUnixTimestamp",
      "outputs": [
        {
          "internalType": "uint256",
          "name": "",
          "type": "uint256"
        }
      ],
      "stateMutability": "view",
      "type": "function"
    },
    {
      "inputs": [
        {
          "internalType": "address",
          "name": "_addr",
          "type": "address"
        }
      ],
      "name": "getTokenBalance",
      "outputs": [
        {
          "internalType": "uint256",
          "name": "",
          "type": "uint256"
        }
      ],
      "stateMutability": "view",
      "type": "function"
    },
    {
      "inputs": [
        {
          "internalType": "address",
          "name": "_addr",
          "type": "address"
        }
      ],
      "name": "getAppointmentsByUser",
      "outputs": [
        {
          "components": [
            {
              "internalType": "uint256",
              "name": "timestamp",
              "type": "uint256"
            },
            {
              "internalType": "uint8",
              "name": "numDays",
              "type": "uint8"
            },
            {
              "internalType": "bool",
              "name": "isCheckedIn",
              "type": "bool"
            }
          ],
          "internalType": "struct Hotel.UserBooking[]",
          "name": "",
          "type": "tuple[]"
        }
      ],
      "stateMutability": "view",
      "type": "function"
    },
    {
      "inputs": [
        {
          "internalType": "uint256",
          "name": "_start",
          "type": "uint256"
        },
        {
          "internalType": "uint8",
          "name": "_numDays",
          "type": "uint8"
        }
      ],
      "name": "getRangeAvailability",
      "outputs": [
        {
          "internalType": "address[]",
          "name": "",
          "type": "address[]"
        }
      ],
      "stateMutability": "view",
      "type": "function"
    },
    {
      "inputs": [
        {
          "internalType": "string",
          "name": "_name",
          "type": "string"
        },
        {
          "internalType": "uint256",
          "name": "_timestamp",
          "type": "uint256"
        },
        {
          "internalType": "uint8",
          "name": "_numDays",
          "type": "uint8"
        }
      ],
      "name": "bookAppointment",
      "outputs": [],
      "stateMutability": "nonpayable",
      "type": "function"
    },
    {
      "inputs": [
        {
          "internalType": "uint8",
          "name": "_index",
          "type": "uint8"
        }
      ],
      "name": "refundAppo",
      "outputs": [],
      "stateMutability": "nonpayable",
      "type": "function"
    },
    {
      "inputs": [
        {
          "internalType": "uint64",
          "name": "_newPrice",
          "type": "uint64"
        }
      ],
      "name": "changeTokenPrice",
      "outputs": [],
      "stateMutability": "nonpayable",
      "type": "function"
    },
    {
      "inputs": [
        {
          "internalType": "uint256",
          "name": "_numTokens",
          "type": "uint256"
        }
      ],
      "name": "buyTokens",
      "outputs": [],
      "stateMutability": "payable",
      "type": "function"
    },
    {
      "inputs": [
        {
          "internalType": "uint256",
          "name": "_timestamp",
          "type": "uint256"
        },
        {
          "internalType": "uint8",
          "name": "_index",
          "type": "uint8"
        }
      ],
      "name": "checkIn",
      "outputs": [],
      "stateMutability": "nonpayable",
      "type": "function"
    },
    {
      "inputs": [
        {
          "internalType": "uint256",
          "name": "_timestamp",
          "type": "uint256"
        },
        {
          "internalType": "uint8",
          "name": "_index",
          "type": "uint8"
        }
      ],
      "name": "checkOut",
      "outputs": [],
      "stateMutability": "nonpayable",
      "type": "function"
    },
    {
      "inputs": [
        {
          "internalType": "uint256",
          "name": "_timestamp",
          "type": "uint256"
        },
        {
          "internalType": "uint8",
          "name": "_index",
          "type": "uint8"
        }
      ],
      "name": "generateOTP",
      "outputs": [
        {
          "internalType": "uint32",
          "name": "pass",
          "type": "uint32"
        }
      ],
      "stateMutability": "nonpayable",
      "type": "function"
    },
    {
      "inputs": [
        {
          "internalType": "uint32",
          "name": "_input",
          "type": "uint32"
        },
        {
          "internalType": "uint256",
          "name": "_timestamp",
          "type": "uint256"
        },
        {
          "internalType": "uint8",
          "name": "_index",
          "type": "uint8"
        }
      ],
      "name": "keyOpen",
      "outputs": [],
      "stateMutability": "nonpayable",
      "type": "function"
    },
    {
      "inputs": [
        {
          "internalType": "uint256",
          "name": "_timestamp",
          "type": "uint256"
        },
        {
          "internalType": "uint8",
          "name": "_index",
          "type": "uint8"
        }
      ],
      "name": "keyLock",
      "outputs": [],
      "stateMutability": "nonpayable",
      "type": "function"
    }
  ],
  "bytecode": "0x608060405234801562000010575f80fd5b50604051620069f5380380620069f58339818101604052810190620000369190620001eb565b42600381905550306040516200004c9062000189565b6200005891906200025e565b604051809103905ff08015801562000072573d5f803e3d5ffd5b505f806101000a81548173ffffffffffffffffffffffffffffffffffffffff021916908373ffffffffffffffffffffffffffffffffffffffff1602179055503360025f6101000a81548173ffffffffffffffffffffffffffffffffffffffff021916908373ffffffffffffffffffffffffffffffffffffffff160217905550604051620000ff9062000197565b604051809103905ff08015801562000119573d5f803e3d5ffd5b5060015f6101000a81548173ffffffffffffffffffffffffffffffffffffffff021916908373ffffffffffffffffffffffffffffffffffffffff16021790555080600260146101000a81548167ffffffffffffffff021916908367ffffffffffffffff1602179055505062000279565b6116248062004c3283390190565b61079f806200625683390190565b5f80fd5b5f67ffffffffffffffff82169050919050565b620001c781620001a9565b8114620001d2575f80fd5b50565b5f81519050620001e581620001bc565b92915050565b5f60208284031215620002035762000202620001a5565b5b5f6200021284828501620001d5565b91505092915050565b5f73ffffffffffffffffffffffffffffffffffffffff82169050919050565b5f62000246826200021b565b9050919050565b62000258816200023a565b82525050565b5f602082019050620002735f8301846200024d565b92915050565b6149ab80620002875f395ff3fe608060405260043610610113575f3560e01c80636c56f5801161009f578063ced4f28f11610063578063ced4f28f14610394578063d03d66fc146103d0578063e3a4d3a2146103f8578063eef3f41e14610436578063f9da89c91461045e57610113565b80636c56f580146102b45780636f3e665f146102f05780637a11308f1461031a5780638da5cb5b14610342578063a91d5a321461036c57610113565b80633aecd0e3116100e65780633aecd0e3146101bf5780633d862a88146101fb5780633e5eff201461023757806348f0478b1461026257806361d60cb31461028c57610113565b806306a0f7f5146101175780630c6dc8271461013f5780630cf3e096146101675780633610724e146101a3575b5f80fd5b348015610122575f80fd5b5061013d60048036038101906101389190612cf8565b610488565b005b34801561014a575f80fd5b5061016560048036038101906101609190612d64565b610855565b005b348015610172575f80fd5b5061018d60048036038101906101889190612dc6565b610c28565b60405161019a9190612e25565b60405180910390f35b6101bd60048036038101906101b89190612e3e565b610ccf565b005b3480156101ca575f80fd5b506101e560048036038101906101e09190612ec3565b610f2e565b6040516101f29190612e25565b60405180910390f35b348015610206575f80fd5b50610221600480360381019061021c9190612ec3565b610fce565b60405161022e919061300e565b60405180910390f35b348015610242575f80fd5b5061024b6110a7565b60405161025992919061305b565b60405180910390f35b34801561026d575f80fd5b506102766110d3565b60405161028391906130dd565b60405180910390f35b348015610297575f80fd5b506102b260048036038101906102ad91906130f6565b6110f6565b005b3480156102bf575f80fd5b506102da60048036038101906102d591906130f6565b611455565b6040516102e79190613134565b60405180910390f35b3480156102fb575f80fd5b50610304611942565b604051610311919061314d565b60405180910390f35b348015610325575f80fd5b50610340600480360381019061033b91906131a3565b611954565b005b34801561034d575f80fd5b50610356611aaa565b60405161036391906131ee565b60405180910390f35b348015610377575f80fd5b50610392600480360381019061038d9190613231565b611acf565b005b34801561039f575f80fd5b506103ba60048036038101906103b591906130f6565b611eb4565b6040516103c79190613338565b60405180910390f35b3480156103db575f80fd5b506103f660048036038101906103f191906130f6565b612134565b005b348015610403575f80fd5b5061041e60048036038101906104199190613358565b61249e565b60405161042d939291906133a5565b60405180910390f35b348015610441575f80fd5b5061045c600480360381019061045791906130f6565b6124f7565b005b348015610469575f80fd5b50610472612840565b60405161047f91906133e9565b60405180910390f35b825f8151036104cc576040517f08c379a00000000000000000000000000000000000000000000000000000000081526004016104c39061345c565b60405180910390fd5b826104d68161285a565b825f8160ff161161051c576040517f08c379a0000000000000000000000000000000000000000000000000000000008152600401610513906134c4565b60405180910390fd5b5f8054906101000a900473ffffffffffffffffffffffffffffffffffffffff1673ffffffffffffffffffffffffffffffffffffffff1663d1df306c33866040518363ffffffff1660e01b8152600401610576929190613521565b5f604051808303815f87803b15801561058d575f80fd5b505af115801561059f573d5f803e3d5ffd5b505050505f5b8460ff168160ff16101561072f576001151560065f8360ff16620151806105cc9190613583565b62ffffff16896105dc91906135bf565b81526020019081526020015f205f015f9054906101000a900460ff1615150361063a576040517f08c379a000000000000000000000000000000000000000000000000000000000815260040161063190613662565b60405180910390fd5b60405180606001604052806001151581526020018881526020013373ffffffffffffffffffffffffffffffffffffffff1681525060065f8360ff16620151806106839190613583565b62ffffff168961069391906135bf565b81526020019081526020015f205f820151815f015f6101000a81548160ff02191690831515021790555060208201518160010190816106d2919061387b565b506040820151816002015f6101000a81548173ffffffffffffffffffffffffffffffffffffffff021916908373ffffffffffffffffffffffffffffffffffffffff16021790555090505080806107279061394a565b9150506105a5565b60075f3373ffffffffffffffffffffffffffffffffffffffff1673ffffffffffffffffffffffffffffffffffffffff1681526020019081526020015f2060405180606001604052808881526020018760ff1681526020015f1515815250908060018154018082558091505060019003905f5260205f2090600202015f909190919091505f820151815f01556020820151816001015f6101000a81548160ff021916908360ff16021790555060408201518160010160016101000a81548160ff02191690831515021790555050503373ffffffffffffffffffffffffffffffffffffffff167fe4731799bd5e498ca5207857e1872ef4489f90f41b4c7d4c30586fface4937848787604051610844929190613972565b60405180910390a250505050505050565b5f60075f3373ffffffffffffffffffffffffffffffffffffffff1673ffffffffffffffffffffffffffffffffffffffff1681526020019081526020015f208260ff16815481106108a8576108a7613999565b5b905f5260205f2090600202015f015490505f60075f3373ffffffffffffffffffffffffffffffffffffffff1673ffffffffffffffffffffffffffffffffffffffff1681526020019081526020015f208360ff168154811061090c5761090b613999565b5b905f5260205f2090600202016001015f9054906101000a900460ff1690505f8211801561093b57505f8160ff16115b61097a576040517f08c379a000000000000000000000000000000000000000000000000000000000815260040161097190613a10565b60405180910390fd5b6109838261285a565b4282116109c5576040517f08c379a00000000000000000000000000000000000000000000000000000000081526004016109bc90613a78565b60405180910390fd5b5f5b8160ff168160ff161015610b3f575f8160ff16620151806109e89190613583565b62ffffff16846109f891906135bf565b90506001151560065f8381526020019081526020015f205f015f9054906101000a900460ff16151514610a60576040517f08c379a0000000000000000000000000000000000000000000000000000000008152600401610a5790613ae0565b60405180910390fd5b3373ffffffffffffffffffffffffffffffffffffffff1660065f8381526020019081526020015f206002015f9054906101000a900473ffffffffffffffffffffffffffffffffffffffff1673ffffffffffffffffffffffffffffffffffffffff1614610b01576040517f08c379a0000000000000000000000000000000000000000000000000000000008152600401610af890613b6e565b60405180910390fd5b5f60065f8381526020019081526020015f205f015f6101000a81548160ff021916908315150217905550508080610b379061394a565b9150506109c7565b610b4b8460ff166128aa565b5f8054906101000a900473ffffffffffffffffffffffffffffffffffffffff1673ffffffffffffffffffffffffffffffffffffffff166379c6506833846040518363ffffffff1660e01b8152600401610ba5929190613521565b5f604051808303815f87803b158015610bbc575f80fd5b505af1158015610bce573d5f803e3d5ffd5b505050503373ffffffffffffffffffffffffffffffffffffffff167fe27d8a4c1635dc3d5feeb0316c9c5fd0dbce9320a639ddd5ac1988d9bca32cb48484604051610c1a929190613972565b60405180910390a250505050565b5f60015f9054906101000a900473ffffffffffffffffffffffffffffffffffffffff1673ffffffffffffffffffffffffffffffffffffffff16638c8d98a08386866040518463ffffffff1660e01b8152600401610c8793929190613b9b565b602060405180830381865afa158015610ca2573d5f803e3d5ffd5b505050506040513d601f19601f82011682018060405250810190610cc69190613be4565b90509392505050565b5f3411610d11576040517f08c379a0000000000000000000000000000000000000000000000000000000008152600401610d0890613c59565b60405180910390fd5b600260149054906101000a900467ffffffffffffffff1667ffffffffffffffff16341015610d74576040517f08c379a0000000000000000000000000000000000000000000000000000000008152600401610d6b90613cc1565b60405180910390fd5b5f60025f9054906101000a900473ffffffffffffffffffffffffffffffffffffffff1673ffffffffffffffffffffffffffffffffffffffff1634604051610dba90613d0c565b5f6040518083038185875af1925050503d805f8114610df4576040519150601f19603f3d011682016040523d82523d5f602084013e610df9565b606091505b5050905080610e3d576040517f08c379a0000000000000000000000000000000000000000000000000000000008152600401610e3490613d6a565b60405180910390fd5b5f8054906101000a900473ffffffffffffffffffffffffffffffffffffffff1673ffffffffffffffffffffffffffffffffffffffff166379c6506833846040518363ffffffff1660e01b8152600401610e97929190613d88565b5f604051808303815f87803b158015610eae575f80fd5b505af1158015610ec0573d5f803e3d5ffd5b505050503373ffffffffffffffffffffffffffffffffffffffff167fef3994179b0230a18df9ee1700885c1c5ee5d13c646f1ea898572e5df8761d5483600260149054906101000a900467ffffffffffffffff16604051610f22929190613daf565b60405180910390a25050565b5f805f9054906101000a900473ffffffffffffffffffffffffffffffffffffffff1673ffffffffffffffffffffffffffffffffffffffff166370a08231836040518263ffffffff1660e01b8152600401610f889190613dd6565b602060405180830381865afa158015610fa3573d5f803e3d5ffd5b505050506040513d601f19601f82011682018060405250810190610fc79190613be4565b9050919050565b606060075f8373ffffffffffffffffffffffffffffffffffffffff1673ffffffffffffffffffffffffffffffffffffffff1681526020019081526020015f20805480602002602001604051908101604052809291908181526020015f905b8282101561109c578382905f5260205f2090600202016040518060600160405290815f8201548152602001600182015f9054906101000a900460ff1660ff1660ff1681526020016001820160019054906101000a900460ff1615151515815250508152602001906001019061102c565b505050509050919050565b6005805f015f9054906101000a900463ffffffff1690805f0160049054906101000a900460ff16905082565b5f8054906101000a900473ffffffffffffffffffffffffffffffffffffffff1681565b816111008161285a565b5f60065f8581526020019081526020015f206040518060600160405290815f82015f9054906101000a900460ff16151515158152602001600182018054611146906136b7565b80601f0160208091040260200160405190810160405280929190818152602001828054611172906136b7565b80156111bd5780601f10611194576101008083540402835291602001916111bd565b820191905f5260205f20905b8154815290600101906020018083116111a057829003601f168201915b50505050508152602001600282015f9054906101000a900473ffffffffffffffffffffffffffffffffffffffff1673ffffffffffffffffffffffffffffffffffffffff1673ffffffffffffffffffffffffffffffffffffffff16815250509050805f0151611260576040517f08c379a000000000000000000000000000000000000000000000000000000000815260040161125790613e5f565b60405180910390fd5b3373ffffffffffffffffffffffffffffffffffffffff16816040015173ffffffffffffffffffffffffffffffffffffffff16146112d2576040517f08c379a00000000000000000000000000000000000000000000000000000000081526004016112c990613ec7565b60405180910390fd5b6001151560075f3373ffffffffffffffffffffffffffffffffffffffff1673ffffffffffffffffffffffffffffffffffffffff1681526020019081526020015f208460ff168154811061132857611327613999565b5b905f5260205f20906002020160010160019054906101000a900460ff16151503611387576040517f08c379a000000000000000000000000000000000000000000000000000000000815260040161137e90613f2f565b60405180910390fd5b600160075f3373ffffffffffffffffffffffffffffffffffffffff1673ffffffffffffffffffffffffffffffffffffffff1681526020019081526020015f208460ff16815481106113db576113da613999565b5b905f5260205f20906002020160010160016101000a81548160ff0219169083151502179055503373ffffffffffffffffffffffffffffffffffffffff167fdddb6e14f7f2101397a6526aab95e964de7f1f44ed06aa47a1c9a0e6b9924456426040516114479190612e25565b60405180910390a250505050565b5f8060065f8581526020019081526020015f206040518060600160405290815f82015f9054906101000a900460ff1615151515815260200160018201805461149c906136b7565b80601f01602080910402602001604051908101604052809291908181526020018280546114c8906136b7565b80156115135780601f106114ea57610100808354040283529160200191611513565b820191905f5260205f20905b8154815290600101906020018083116114f657829003601f168201915b50505050508152602001600282015f9054906101000a900473ffffffffffffffffffffffffffffffffffffffff1673ffffffffffffffffffffffffffffffffffffffff1673ffffffffffffffffffffffffffffffffffffffff16815250509050805f01516115b6576040517f08c379a00000000000000000000000000000000000000000000000000000000081526004016115ad90613e5f565b60405180910390fd5b3373ffffffffffffffffffffffffffffffffffffffff16816040015173ffffffffffffffffffffffffffffffffffffffff1614611628576040517f08c379a000000000000000000000000000000000000000000000000000000000815260040161161f90613ec7565b60405180910390fd5b60075f826040015173ffffffffffffffffffffffffffffffffffffffff1673ffffffffffffffffffffffffffffffffffffffff1681526020019081526020015f208360ff168154811061167e5761167d613999565b5b905f5260205f20906002020160010160019054906101000a900460ff166116da576040517f08c379a00000000000000000000000000000000000000000000000000000000081526004016116d190613fbd565b60405180910390fd5b5f60055f015f6101000a81548163ffffffff021916908363ffffffff1602179055505f4244338787604051602001611716959493929190614074565b604051602081830303815290604052805190602001205f1c90505f604b8261173e91906140ff565b905060068160ff1610611802575f5b60068160ff1610156117fc578082611765919061412f565b600a6117719190614292565b600a828461177f919061412f565b600a61178b9190614292565b8561179691906142dc565b6117a091906140ff565b6117aa919061430c565b60055f015f8282829054906101000a900463ffffffff166117cb919061434d565b92506101000a81548163ffffffff021916908363ffffffff16021790555080806117f49061394a565b91505061174d565b506118b5565b5f5b60068160ff1610156118b357818161181c9190614384565b600a6118289190614292565b600a83836118369190614384565b600a6118429190614292565b8561184d91906142dc565b61185791906140ff565b611861919061430c565b60055f015f8282829054906101000a900463ffffffff16611882919061434d565b92506101000a81548163ffffffff021916908363ffffffff16021790555080806118ab9061394a565b915050611804565b505b60055f015f9054906101000a900463ffffffff1693505f60055f0160046101000a81548160ff021916908315150217905550826040015173ffffffffffffffffffffffffffffffffffffffff167f36fb06b75799115a7e1dbddf47ae0c985f4e9d6ddf38b9f0f8dfea18e2c34e44426040516119319190612e25565b60405180910390a250505092915050565b60045f9054906101000a900460ff1681565b60025f9054906101000a900473ffffffffffffffffffffffffffffffffffffffff1673ffffffffffffffffffffffffffffffffffffffff163373ffffffffffffffffffffffffffffffffffffffff16146119e3576040517f08c379a00000000000000000000000000000000000000000000000000000000081526004016119da90614402565b60405180910390fd5b5f8167ffffffffffffffff1611611a2f576040517f08c379a0000000000000000000000000000000000000000000000000000000008152600401611a269061446a565b60405180910390fd5b7f77faaf6939a2630a2ba13517d99b9033741224f833291e662af2a4374f75f660600260149054906101000a900467ffffffffffffffff1682604051611a76929190614488565b60405180910390a180600260146101000a81548167ffffffffffffffff021916908367ffffffffffffffff16021790555050565b60025f9054906101000a900473ffffffffffffffffffffffffffffffffffffffff1681565b5f60065f8481526020019081526020015f206040518060600160405290815f82015f9054906101000a900460ff16151515158152602001600182018054611b15906136b7565b80601f0160208091040260200160405190810160405280929190818152602001828054611b41906136b7565b8015611b8c5780601f10611b6357610100808354040283529160200191611b8c565b820191905f5260205f20905b815481529060010190602001808311611b6f57829003601f168201915b50505050508152602001600282015f9054906101000a900473ffffffffffffffffffffffffffffffffffffffff1673ffffffffffffffffffffffffffffffffffffffff1673ffffffffffffffffffffffffffffffffffffffff16815250509050805f0151611c2f576040517f08c379a0000000000000000000000000000000000000000000000000000000008152600401611c2690613e5f565b60405180910390fd5b3373ffffffffffffffffffffffffffffffffffffffff16816040015173ffffffffffffffffffffffffffffffffffffffff1614611ca1576040517f08c379a0000000000000000000000000000000000000000000000000000000008152600401611c9890613ec7565b60405180910390fd5b60075f826040015173ffffffffffffffffffffffffffffffffffffffff1673ffffffffffffffffffffffffffffffffffffffff1681526020019081526020015f208260ff1681548110611cf757611cf6613999565b5b905f5260205f20906002020160010160019054906101000a900460ff16611d53576040517f08c379a0000000000000000000000000000000000000000000000000000000008152600401611d4a9061451f565b60405180910390fd5b5f151560045f9054906101000a900460ff16151514611da7576040517f08c379a0000000000000000000000000000000000000000000000000000000008152600401611d9e90614587565b60405180910390fd5b5f151560055f0160049054906101000a900460ff16151514611dfe576040517f08c379a0000000000000000000000000000000000000000000000000000000008152600401611df5906145ef565b60405180910390fd5b60055f015f9054906101000a900463ffffffff1663ffffffff168463ffffffff1603611e5c57600160055f0160046101000a81548160ff021916908315150217905550600160045f6101000a81548160ff0219169083151502179055505b806040015173ffffffffffffffffffffffffffffffffffffffff167f3c3a029638e50549fcf21d2bc98c74b6f2cbc3a0539148a77068067a5fa835d542604051611ea69190612e25565b60405180910390a250505050565b60608282611ec182612aef565b61016d8160ff1611158015611ed857505f8160ff16115b611f17576040517f08c379a0000000000000000000000000000000000000000000000000000000008152600401611f0e90614657565b60405180910390fd5b5f808560ff1667ffffffffffffffff811115611f3657611f35612b6b565b5b604051908082528060200260200182016040528015611f645781602001602082028036833780820191505090505b5090505b8560ff168260ff161015612127575f60065f620151808560ff16611f8c9190613583565b62ffffff168a611f9c91906135bf565b81526020019081526020015f206040518060600160405290815f82015f9054906101000a900460ff16151515158152602001600182018054611fdd906136b7565b80601f0160208091040260200160405190810160405280929190818152602001828054612009906136b7565b80156120545780601f1061202b57610100808354040283529160200191612054565b820191905f5260205f20905b81548152906001019060200180831161203757829003601f168201915b50505050508152602001600282015f9054906101000a900473ffffffffffffffffffffffffffffffffffffffff1673ffffffffffffffffffffffffffffffffffffffff1673ffffffffffffffffffffffffffffffffffffffff16815250509050805f015115612113578060400151828460ff16815181106120d8576120d7613999565b5b602002602001019073ffffffffffffffffffffffffffffffffffffffff16908173ffffffffffffffffffffffffffffffffffffffff16815250505b50818061211f9061394a565b925050611f68565b8094505050505092915050565b8161213e8161285a565b5f60065f8581526020019081526020015f206040518060600160405290815f82015f9054906101000a900460ff16151515158152602001600182018054612184906136b7565b80601f01602080910402602001604051908101604052809291908181526020018280546121b0906136b7565b80156121fb5780601f106121d2576101008083540402835291602001916121fb565b820191905f5260205f20905b8154815290600101906020018083116121de57829003601f168201915b50505050508152602001600282015f9054906101000a900473ffffffffffffffffffffffffffffffffffffffff1673ffffffffffffffffffffffffffffffffffffffff1673ffffffffffffffffffffffffffffffffffffffff16815250509050805f015161229e576040517f08c379a000000000000000000000000000000000000000000000000000000000815260040161229590613e5f565b60405180910390fd5b3373ffffffffffffffffffffffffffffffffffffffff16816040015173ffffffffffffffffffffffffffffffffffffffff1614612310576040517f08c379a000000000000000000000000000000000000000000000000000000000815260040161230790613ec7565b60405180910390fd5b6001151560075f3373ffffffffffffffffffffffffffffffffffffffff1673ffffffffffffffffffffffffffffffffffffffff1681526020019081526020015f208460ff168154811061236657612365613999565b5b905f5260205f20906002020160010160019054906101000a900460ff161515146123c5576040517f08c379a00000000000000000000000000000000000000000000000000000000081526004016123bc906146bf565b60405180910390fd5b5f60075f3373ffffffffffffffffffffffffffffffffffffffff1673ffffffffffffffffffffffffffffffffffffffff1681526020019081526020015f208460ff168154811061241857612417613999565b5b905f5260205f20906002020160010160016101000a81548160ff02191690831515021790555061244a8360ff166128aa565b3373ffffffffffffffffffffffffffffffffffffffff167f5f56f72b1cd7de6f6d20a960c3287ccb7d1acbc0e44f96885c6ab556eae102ea426040516124909190612e25565b60405180910390a250505050565b6007602052815f5260405f2081815481106124b7575f80fd5b905f5260205f2090600202015f9150915050805f015490806001015f9054906101000a900460ff16908060010160019054906101000a900460ff16905083565b5f60065f8481526020019081526020015f206040518060600160405290815f82015f9054906101000a900460ff1615151515815260200160018201805461253d906136b7565b80601f0160208091040260200160405190810160405280929190818152602001828054612569906136b7565b80156125b45780601f1061258b576101008083540402835291602001916125b4565b820191905f5260205f20905b81548152906001019060200180831161259757829003601f168201915b50505050508152602001600282015f9054906101000a900473ffffffffffffffffffffffffffffffffffffffff1673ffffffffffffffffffffffffffffffffffffffff1673ffffffffffffffffffffffffffffffffffffffff16815250509050805f0151612657576040517f08c379a000000000000000000000000000000000000000000000000000000000815260040161264e90613e5f565b60405180910390fd5b3373ffffffffffffffffffffffffffffffffffffffff16816040015173ffffffffffffffffffffffffffffffffffffffff16146126c9576040517f08c379a00000000000000000000000000000000000000000000000000000000081526004016126c090613ec7565b60405180910390fd5b60075f826040015173ffffffffffffffffffffffffffffffffffffffff1673ffffffffffffffffffffffffffffffffffffffff1681526020019081526020015f208260ff168154811061271f5761271e613999565b5b905f5260205f20906002020160010160019054906101000a900460ff1661277b576040517f08c379a00000000000000000000000000000000000000000000000000000000081526004016127729061474d565b60405180910390fd5b6001151560045f9054906101000a900460ff161515146127d0576040517f08c379a00000000000000000000000000000000000000000000000000000000081526004016127c7906147b5565b60405180910390fd5b5f60045f6101000a81548160ff021916908315150217905550806040015173ffffffffffffffffffffffffffffffffffffffff167fe85a5ce681f084327d67d7953b5e80a0b2a6d1150ca58b700b61259d7276ae3d426040516128339190612e25565b60405180910390a2505050565b600260149054906101000a900467ffffffffffffffff1681565b600354811161289e576040517f08c379a000000000000000000000000000000000000000000000000000000000815260040161289590614843565b60405180910390fd5b6128a781612aef565b50565b60075f3373ffffffffffffffffffffffffffffffffffffffff1673ffffffffffffffffffffffffffffffffffffffff1681526020019081526020015f208054905081106128f5575f80fd5b60075f3373ffffffffffffffffffffffffffffffffffffffff1673ffffffffffffffffffffffffffffffffffffffff1681526020019081526020015f20600160075f3373ffffffffffffffffffffffffffffffffffffffff1673ffffffffffffffffffffffffffffffffffffffff1681526020019081526020015f208054905061297f9190614861565b815481106129905761298f613999565b5b905f5260205f20906002020160075f3373ffffffffffffffffffffffffffffffffffffffff1673ffffffffffffffffffffffffffffffffffffffff1681526020019081526020015f2082815481106129eb576129ea613999565b5b905f5260205f2090600202015f820154815f0155600182015f9054906101000a900460ff16816001015f6101000a81548160ff021916908360ff1602179055506001820160019054906101000a900460ff168160010160016101000a81548160ff02191690831515021790555090505060075f3373ffffffffffffffffffffffffffffffffffffffff1673ffffffffffffffffffffffffffffffffffffffff1681526020019081526020015f20805480612aa857612aa7614894565b5b600190038181905f5260205f2090600202015f8082015f9055600182015f6101000a81549060ff02191690556001820160016101000a81549060ff02191690555050905550565b5f6201518082612aff91906140ff565b14612b3f576040517f08c379a0000000000000000000000000000000000000000000000000000000008152600401612b3690614957565b60405180910390fd5b50565b5f604051905090565b5f80fd5b5f80fd5b5f80fd5b5f80fd5b5f601f19601f8301169050919050565b7f4e487b71000000000000000000000000000000000000000000000000000000005f52604160045260245ffd5b612ba182612b5b565b810181811067ffffffffffffffff82111715612bc057612bbf612b6b565b5b80604052505050565b5f612bd2612b42565b9050612bde8282612b98565b919050565b5f67ffffffffffffffff821115612bfd57612bfc612b6b565b5b612c0682612b5b565b9050602081019050919050565b828183375f83830152505050565b5f612c33612c2e84612be3565b612bc9565b905082815260208101848484011115612c4f57612c4e612b57565b5b612c5a848285612c13565b509392505050565b5f82601f830112612c7657612c75612b53565b5b8135612c86848260208601612c21565b91505092915050565b5f819050919050565b612ca181612c8f565b8114612cab575f80fd5b50565b5f81359050612cbc81612c98565b92915050565b5f60ff82169050919050565b612cd781612cc2565b8114612ce1575f80fd5b50565b5f81359050612cf281612cce565b92915050565b5f805f60608486031215612d0f57612d0e612b4b565b5b5f84013567ffffffffffffffff811115612d2c57612d2b612b4f565b5b612d3886828701612c62565b9350506020612d4986828701612cae565b9250506040612d5a86828701612ce4565b9150509250925092565b5f60208284031215612d7957612d78612b4b565b5b5f612d8684828501612ce4565b91505092915050565b5f61ffff82169050919050565b612da581612d8f565b8114612daf575f80fd5b50565b5f81359050612dc081612d9c565b92915050565b5f805f60608486031215612ddd57612ddc612b4b565b5b5f612dea86828701612ce4565b9350506020612dfb86828701612ce4565b9250506040612e0c86828701612db2565b9150509250925092565b612e1f81612c8f565b82525050565b5f602082019050612e385f830184612e16565b92915050565b5f60208284031215612e5357612e52612b4b565b5b5f612e6084828501612cae565b91505092915050565b5f73ffffffffffffffffffffffffffffffffffffffff82169050919050565b5f612e9282612e69565b9050919050565b612ea281612e88565b8114612eac575f80fd5b50565b5f81359050612ebd81612e99565b92915050565b5f60208284031215612ed857612ed7612b4b565b5b5f612ee584828501612eaf565b91505092915050565b5f81519050919050565b5f82825260208201905092915050565b5f819050602082019050919050565b612f2081612c8f565b82525050565b612f2f81612cc2565b82525050565b5f8115159050919050565b612f4981612f35565b82525050565b606082015f820151612f635f850182612f17565b506020820151612f766020850182612f26565b506040820151612f896040850182612f40565b50505050565b5f612f9a8383612f4f565b60608301905092915050565b5f602082019050919050565b5f612fbc82612eee565b612fc68185612ef8565b9350612fd183612f08565b805f5b83811015613001578151612fe88882612f8f565b9750612ff383612fa6565b925050600181019050612fd4565b5085935050505092915050565b5f6020820190508181035f8301526130268184612fb2565b905092915050565b5f63ffffffff82169050919050565b6130468161302e565b82525050565b61305581612f35565b82525050565b5f60408201905061306e5f83018561303d565b61307b602083018461304c565b9392505050565b5f819050919050565b5f6130a56130a061309b84612e69565b613082565b612e69565b9050919050565b5f6130b68261308b565b9050919050565b5f6130c7826130ac565b9050919050565b6130d7816130bd565b82525050565b5f6020820190506130f05f8301846130ce565b92915050565b5f806040838503121561310c5761310b612b4b565b5b5f61311985828601612cae565b925050602061312a85828601612ce4565b9150509250929050565b5f6020820190506131475f83018461303d565b92915050565b5f6020820190506131605f83018461304c565b92915050565b5f67ffffffffffffffff82169050919050565b61318281613166565b811461318c575f80fd5b50565b5f8135905061319d81613179565b92915050565b5f602082840312156131b8576131b7612b4b565b5b5f6131c58482850161318f565b91505092915050565b5f6131d882612e69565b9050919050565b6131e8816131ce565b82525050565b5f6020820190506132015f8301846131df565b92915050565b6132108161302e565b811461321a575f80fd5b50565b5f8135905061322b81613207565b92915050565b5f805f6060848603121561324857613247612b4b565b5b5f6132558682870161321d565b935050602061326686828701612cae565b925050604061327786828701612ce4565b9150509250925092565b5f81519050919050565b5f82825260208201905092915050565b5f819050602082019050919050565b6132b381612e88565b82525050565b5f6132c483836132aa565b60208301905092915050565b5f602082019050919050565b5f6132e682613281565b6132f0818561328b565b93506132fb8361329b565b805f5b8381101561332b57815161331288826132b9565b975061331d836132d0565b9250506001810190506132fe565b5085935050505092915050565b5f6020820190508181035f83015261335081846132dc565b905092915050565b5f806040838503121561336e5761336d612b4b565b5b5f61337b85828601612eaf565b925050602061338c85828601612cae565b9150509250929050565b61339f81612cc2565b82525050565b5f6060820190506133b85f830186612e16565b6133c56020830185613396565b6133d2604083018461304c565b949350505050565b6133e381613166565b82525050565b5f6020820190506133fc5f8301846133da565b92915050565b5f82825260208201905092915050565b7f5061727479206e616d652063616e6e6f7420626520626c616e6b0000000000005f82015250565b5f613446601a83613402565b915061345182613412565b602082019050919050565b5f6020820190508181035f8301526134738161343a565b9050919050565b7f4d75737420626520612076616c75652061626f766520300000000000000000005f82015250565b5f6134ae601783613402565b91506134b98261347a565b602082019050919050565b5f6020820190508181035f8301526134db816134a2565b9050919050565b6134eb81612e88565b82525050565b5f61350b61350661350184612cc2565b613082565b612c8f565b9050919050565b61351b816134f1565b82525050565b5f6040820190506135345f8301856134e2565b6135416020830184613512565b9392505050565b5f62ffffff82169050919050565b7f4e487b71000000000000000000000000000000000000000000000000000000005f52601160045260245ffd5b5f61358d82613548565b915061359883613548565b92508282026135a681613548565b91508082146135b8576135b7613556565b5b5092915050565b5f6135c982612c8f565b91506135d483612c8f565b92508282019050808211156135ec576135eb613556565b5b92915050565b7f4170706f696e746d656e7420616c726561647920657869737473206f6e206f6e5f8201527f65206f72206d6f7265206f662074686520726571756573746564206461746573602082015250565b5f61364c604083613402565b9150613657826135f2565b604082019050919050565b5f6020820190508181035f83015261367981613640565b9050919050565b5f81519050919050565b7f4e487b71000000000000000000000000000000000000000000000000000000005f52602260045260245ffd5b5f60028204905060018216806136ce57607f821691505b6020821081036136e1576136e061368a565b5b50919050565b5f819050815f5260205f209050919050565b5f6020601f8301049050919050565b5f82821b905092915050565b5f600883026137437fffffffffffffffffffffffffffffffffffffffffffffffffffffffffffffffff82613708565b61374d8683613708565b95508019841693508086168417925050509392505050565b5f61377f61377a61377584612c8f565b613082565b612c8f565b9050919050565b5f819050919050565b61379883613765565b6137ac6137a482613786565b848454613714565b825550505050565b5f90565b6137c06137b4565b6137cb81848461378f565b505050565b5b818110156137ee576137e35f826137b8565b6001810190506137d1565b5050565b601f82111561383357613804816136e7565b61380d846136f9565b8101602085101561381c578190505b613830613828856136f9565b8301826137d0565b50505b505050565b5f82821c905092915050565b5f6138535f1984600802613838565b1980831691505092915050565b5f61386b8383613844565b9150826002028217905092915050565b61388482613680565b67ffffffffffffffff81111561389d5761389c612b6b565b5b6138a782546136b7565b6138b28282856137f2565b5f60209050601f8311600181146138e3575f84156138d1578287015190505b6138db8582613860565b865550613942565b601f1984166138f1866136e7565b5f5b82811015613918578489015182556001820191506020850194506020810190506138f3565b868310156139355784890151613931601f891682613844565b8355505b6001600288020188555050505b505050505050565b5f61395482612cc2565b915060ff820361396757613966613556565b5b600182019050919050565b5f6040820190506139855f830185612e16565b6139926020830184613512565b9392505050565b7f4e487b71000000000000000000000000000000000000000000000000000000005f52603260045260245ffd5b7f6e6f20626f6f6b696e6720666f756e64206174207468617420696e64657800005f82015250565b5f6139fa601e83613402565b9150613a05826139c6565b602082019050919050565b5f6020820190508181035f830152613a27816139ee565b9050919050565b7f63616e6e6f742063616e63656c206576656e747320696e2074686520706173745f82015250565b5f613a62602083613402565b9150613a6d82613a2e565b602082019050919050565b5f6020820190508181035f830152613a8f81613a56565b9050919050565b7f4170706f696e746d656e7420646f6573206e6f742065786973740000000000005f82015250565b5f613aca601a83613402565b9150613ad582613a96565b602082019050919050565b5f6020820190508181035f830152613af781613abe565b9050919050565b7f43616e6e6f7420726566756e6420616e206170706f696e746d656e74206d73675f8201527f2e73656e64657220646964206e6f742063726561746500000000000000000000602082015250565b5f613b58603683613402565b9150613b6382613afe565b604082019050919050565b5f6020820190508181035f830152613b8581613b4c565b9050919050565b613b9581612d8f565b82525050565b5f606082019050613bae5f830186613b8c565b613bbb6020830185613396565b613bc86040830184613396565b949350505050565b5f81519050613bde81612c98565b92915050565b5f60208284031215613bf957613bf8612b4b565b5b5f613c0684828501613bd0565b91505092915050565b7f6d7573742073656e6420657468657220696e20726571756573740000000000005f82015250565b5f613c43601a83613402565b9150613c4e82613c0f565b602082019050919050565b5f6020820190508181035f830152613c7081613c37565b9050919050565b7f6e6f7420656e6f7567682065746865722073656e7420696e20726571756573745f82015250565b5f613cab602083613402565b9150613cb682613c77565b602082019050919050565b5f6020820190508181035f830152613cd881613c9f565b9050919050565b5f81905092915050565b50565b5f613cf75f83613cdf565b9150613d0282613ce9565b5f82019050919050565b5f613d1682613cec565b9150819050919050565b7f4661696c656420746f2073656e642045746865720000000000000000000000005f82015250565b5f613d54601483613402565b9150613d5f82613d20565b602082019050919050565b5f6020820190508181035f830152613d8181613d48565b9050919050565b5f604082019050613d9b5f8301856134e2565b613da86020830184612e16565b9392505050565b5f604082019050613dc25f830185612e16565b613dcf60208301846133da565b9392505050565b5f602082019050613de95f8301846134e2565b92915050565b7f4e6f206170706f696e746d656e742065786973747320617420746869732074695f8201527f6d657374616d7000000000000000000000000000000000000000000000000000602082015250565b5f613e49602783613402565b9150613e5482613def565b604082019050919050565b5f6020820190508181035f830152613e7681613e3d565b9050919050565b7f596f7520646f206e6f74206f776e2074686973206170706f696e746d656e74005f82015250565b5f613eb1601f83613402565b9150613ebc82613e7d565b602082019050919050565b5f6020820190508181035f830152613ede81613ea5565b9050919050565b7f596f75206861766520616c726561647920636865636b656420696e00000000005f82015250565b5f613f19601b83613402565b9150613f2482613ee5565b602082019050919050565b5f6020820190508181035f830152613f4681613f0d565b9050919050565b7f55736572206d75737420626520636865636b656420696e20746f2067656e65725f8201527f6174652061206f6e652d74696d6520636f646500000000000000000000000000602082015250565b5f613fa7603383613402565b9150613fb282613f4d565b604082019050919050565b5f6020820190508181035f830152613fd481613f9b565b9050919050565b5f819050919050565b613ff5613ff082612c8f565b613fdb565b82525050565b5f8160601b9050919050565b5f61401182613ffb565b9050919050565b5f61402282614007565b9050919050565b61403a61403582612e88565b614018565b82525050565b5f8160f81b9050919050565b5f61405682614040565b9050919050565b61406e61406982612cc2565b61404c565b82525050565b5f61407f8288613fe4565b60208201915061408f8287613fe4565b60208201915061409f8286614029565b6014820191506140af8285613fe4565b6020820191506140bf828461405d565b6001820191508190509695505050505050565b7f4e487b71000000000000000000000000000000000000000000000000000000005f52601260045260245ffd5b5f61410982612c8f565b915061411483612c8f565b925082614124576141236140d2565b5b828206905092915050565b5f61413982612cc2565b915061414483612cc2565b9250828203905060ff81111561415d5761415c613556565b5b92915050565b5f8160011c9050919050565b5f808291508390505b60018511156141b85780860481111561419457614193613556565b5b60018516156141a35780820291505b80810290506141b185614163565b9450614178565b94509492505050565b5f826141d0576001905061428b565b816141dd575f905061428b565b81600181146141f357600281146141fd5761422c565b600191505061428b565b60ff84111561420f5761420e613556565b5b8360020a91508482111561422657614225613556565b5b5061428b565b5060208310610133831016604e8410600b84101617156142615782820a90508381111561425c5761425b613556565b5b61428b565b61426e848484600161416f565b9250905081840481111561428557614284613556565b5b81810290505b9392505050565b5f61429c82612c8f565b91506142a783612cc2565b92506142d47fffffffffffffffffffffffffffffffffffffffffffffffffffffffffffffffff84846141c1565b905092915050565b5f6142e682612c8f565b91506142f183612c8f565b925082614301576143006140d2565b5b828204905092915050565b5f61431682612c8f565b915061432183612c8f565b925082820261432f81612c8f565b9150828204841483151761434657614345613556565b5b5092915050565b5f6143578261302e565b91506143628361302e565b9250828201905063ffffffff81111561437e5761437d613556565b5b92915050565b5f61438e82612cc2565b915061439983612cc2565b9250828201905060ff8111156143b2576143b1613556565b5b92915050565b7f6f776e657220726573747269637465642066756e74696f6e616c6974790000005f82015250565b5f6143ec601d83613402565b91506143f7826143b8565b602082019050919050565b5f6020820190508181035f830152614419816143e0565b9050919050565b7f4e6577207072696365206d757374206265206d6f7265207468616e207a65726f5f82015250565b5f614454602083613402565b915061445f82614420565b602082019050919050565b5f6020820190508181035f83015261448181614448565b9050919050565b5f60408201905061449b5f8301856133da565b6144a860208301846133da565b9392505050565b7f55736572206d75737420626520636865636b656420696e20746f206f70656e205f8201527f6b65790000000000000000000000000000000000000000000000000000000000602082015250565b5f614509602383613402565b9150614514826144af565b604082019050919050565b5f6020820190508181035f830152614536816144fd565b9050919050565b7f5468697320726f6f6d20697320616c7265616479206f70656e656400000000005f82015250565b5f614571601b83613402565b915061457c8261453d565b602082019050919050565b5f6020820190508181035f83015261459e81614565565b9050919050565b7f506c6561736520726567656e65726174652070617373776f72640000000000005f82015250565b5f6145d9601a83613402565b91506145e4826145a5565b602082019050919050565b5f6020820190508181035f830152614606816145cd565b9050919050565b7f56616c69642072616e676573206172652031202d2033363500000000000000005f82015250565b5f614641601883613402565b915061464c8261460d565b602082019050919050565b5f6020820190508181035f83015261466e81614635565b9050919050565b7f596f752068617665206e6f7420636865636b656420696e0000000000000000005f82015250565b5f6146a9601783613402565b91506146b482614675565b602082019050919050565b5f6020820190508181035f8301526146d68161469d565b9050919050565b7f55736572206d75737420626520636865636b656420696e20746f206c6f636b205f8201527f746865206b657900000000000000000000000000000000000000000000000000602082015250565b5f614737602783613402565b9150614742826146dd565b604082019050919050565b5f6020820190508181035f8301526147648161472b565b9050919050565b7f5468697320726f6f6d20697320616c726561647920636c6f73656400000000005f82015250565b5f61479f601b83613402565b91506147aa8261476b565b602082019050919050565b5f6020820190508181035f8301526147cc81614793565b9050919050565b7f43616e6e6f742075736520616e792074696d657374616d70206265666f7265205f8201527f74686520636f6e7472616374206465706c6f792074696d657374616d70000000602082015250565b5f61482d603d83613402565b9150614838826147d3565b604082019050919050565b5f6020820190508181035f83015261485a81614821565b9050919050565b5f61486b82612c8f565b915061487683612c8f565b925082820390508181111561488e5761488d613556565b5b92915050565b7f4e487b71000000000000000000000000000000000000000000000000000000005f52603160045260245ffd5b7f54696d657374616d70206d757374206265206d6f642038363430303b207472795f8201527f207573696e6720676574556e697854696d657374616d7020666f72206120676960208201527f76656e206d6f6e74682c206461792c2079656172000000000000000000000000604082015250565b5f614941605483613402565b915061494c826148c1565b606082019050919050565b5f6020820190508181035f83015261496e81614935565b905091905056fea264697066735822122048dea93319ed100d7f5cd7a54efadfb208d00ea32a150a0d58e1edc414c6e27664736f6c6343000814003360806040526040516200162438038062001624833981810160405281019062000029919062000167565b6040518060400160405280600a81526020017f486f74656c546f6b656e000000000000000000000000000000000000000000008152506040518060400160405280600381526020017f48546f00000000000000000000000000000000000000000000000000000000008152508160039081620000a69190620003fb565b508060049081620000b89190620003fb565b5050508060055f6101000a81548173ffffffffffffffffffffffffffffffffffffffff021916908373ffffffffffffffffffffffffffffffffffffffff16021790555050620004df565b5f80fd5b5f73ffffffffffffffffffffffffffffffffffffffff82169050919050565b5f620001318262000106565b9050919050565b620001438162000125565b81146200014e575f80fd5b50565b5f81519050620001618162000138565b92915050565b5f602082840312156200017f576200017e62000102565b5b5f6200018e8482850162000151565b91505092915050565b5f81519050919050565b7f4e487b71000000000000000000000000000000000000000000000000000000005f52604160045260245ffd5b7f4e487b71000000000000000000000000000000000000000000000000000000005f52602260045260245ffd5b5f60028204905060018216806200021357607f821691505b602082108103620002295762000228620001ce565b5b50919050565b5f819050815f5260205f209050919050565b5f6020601f8301049050919050565b5f82821b905092915050565b5f600883026200028d7fffffffffffffffffffffffffffffffffffffffffffffffffffffffffffffffff8262000250565b62000299868362000250565b95508019841693508086168417925050509392505050565b5f819050919050565b5f819050919050565b5f620002e3620002dd620002d784620002b1565b620002ba565b620002b1565b9050919050565b5f819050919050565b620002fe83620002c3565b620003166200030d82620002ea565b8484546200025c565b825550505050565b5f90565b6200032c6200031e565b62000339818484620002f3565b505050565b5b818110156200036057620003545f8262000322565b6001810190506200033f565b5050565b601f821115620003af5762000379816200022f565b620003848462000241565b8101602085101562000394578190505b620003ac620003a38562000241565b8301826200033e565b50505b505050565b5f82821c905092915050565b5f620003d15f1984600802620003b4565b1980831691505092915050565b5f620003eb8383620003c0565b9150826002028217905092915050565b620004068262000197565b67ffffffffffffffff811115620004225762000421620001a1565b5b6200042e8254620001fb565b6200043b82828562000364565b5f60209050601f83116001811462000471575f84156200045c578287015190505b620004688582620003de565b865550620004d7565b601f19841662000481866200022f565b5f5b82811015620004aa5784890151825560018201915060208501945060208101905062000483565b86831015620004ca5784890151620004c6601f891682620003c0565b8355505b6001600288020188555050505b505050505050565b61113780620004ed5f395ff3fe608060405234801561000f575f80fd5b50600436106100b2575f3560e01c806379c650681161006f57806379c65068146101a05780638da5cb5b146101bc57806395d89b41146101da578063a9059cbb146101f8578063d1df306c14610228578063dd62ed3e14610244576100b2565b806306fdde03146100b6578063095ea7b3146100d457806318160ddd1461010457806323b872dd14610122578063313ce5671461015257806370a0823114610170575b5f80fd5b6100be610274565b6040516100cb9190610d48565b60405180910390f35b6100ee60048036038101906100e99190610df9565b610304565b6040516100fb9190610e51565b60405180910390f35b61010c610326565b6040516101199190610e79565b60405180910390f35b61013c60048036038101906101379190610e92565b61032f565b6040516101499190610e51565b60405180910390f35b61015a61035d565b6040516101679190610efd565b60405180910390f35b61018a60048036038101906101859190610f16565b610365565b6040516101979190610e79565b60405180910390f35b6101ba60048036038101906101b59190610df9565b6103aa565b005b6101c4610447565b6040516101d19190610f50565b60405180910390f35b6101e261046c565b6040516101ef9190610d48565b60405180910390f35b610212600480360381019061020d9190610df9565b6104fc565b60405161021f9190610e51565b60405180910390f35b610242600480360381019061023d9190610df9565b61051e565b005b61025e60048036038101906102599190610f69565b6105bb565b60405161026b9190610e79565b60405180910390f35b60606003805461028390610fd4565b80601f01602080910402602001604051908101604052809291908181526020018280546102af90610fd4565b80156102fa5780601f106102d1576101008083540402835291602001916102fa565b820191905f5260205f20905b8154815290600101906020018083116102dd57829003601f168201915b5050505050905090565b5f8061030e61063d565b905061031b818585610644565b600191505092915050565b5f600254905090565b5f8061033961063d565b9050610346858285610656565b6103518585856106e8565b60019150509392505050565b5f6012905090565b5f805f8373ffffffffffffffffffffffffffffffffffffffff1673ffffffffffffffffffffffffffffffffffffffff1681526020019081526020015f20549050919050565b60055f9054906101000a900473ffffffffffffffffffffffffffffffffffffffff1673ffffffffffffffffffffffffffffffffffffffff163373ffffffffffffffffffffffffffffffffffffffff1614610439576040517f08c379a00000000000000000000000000000000000000000000000000000000081526004016104309061104e565b60405180910390fd5b61044382826107d8565b5050565b60055f9054906101000a900473ffffffffffffffffffffffffffffffffffffffff1681565b60606004805461047b90610fd4565b80601f01602080910402602001604051908101604052809291908181526020018280546104a790610fd4565b80156104f25780601f106104c9576101008083540402835291602001916104f2565b820191905f5260205f20905b8154815290600101906020018083116104d557829003601f168201915b5050505050905090565b5f8061050661063d565b90506105138185856106e8565b600191505092915050565b60055f9054906101000a900473ffffffffffffffffffffffffffffffffffffffff1673ffffffffffffffffffffffffffffffffffffffff163373ffffffffffffffffffffffffffffffffffffffff16146105ad576040517f08c379a00000000000000000000000000000000000000000000000000000000081526004016105a49061104e565b60405180910390fd5b6105b78282610857565b5050565b5f60015f8473ffffffffffffffffffffffffffffffffffffffff1673ffffffffffffffffffffffffffffffffffffffff1681526020019081526020015f205f8373ffffffffffffffffffffffffffffffffffffffff1673ffffffffffffffffffffffffffffffffffffffff1681526020019081526020015f2054905092915050565b5f33905090565b61065183838360016108d6565b505050565b5f61066184846105bb565b90507fffffffffffffffffffffffffffffffffffffffffffffffffffffffffffffffff81146106e257818110156106d3578281836040517ffb8f41b20000000000000000000000000000000000000000000000000000000081526004016106ca9392919061106c565b60405180910390fd5b6106e184848484035f6108d6565b5b50505050565b5f73ffffffffffffffffffffffffffffffffffffffff168373ffffffffffffffffffffffffffffffffffffffff1603610758575f6040517f96c6fd1e00000000000000000000000000000000000000000000000000000000815260040161074f9190610f50565b60405180910390fd5b5f73ffffffffffffffffffffffffffffffffffffffff168273ffffffffffffffffffffffffffffffffffffffff16036107c8575f6040517fec442f050000000000000000000000000000000000000000000000000000000081526004016107bf9190610f50565b60405180910390fd5b6107d3838383610aa5565b505050565b5f73ffffffffffffffffffffffffffffffffffffffff168273ffffffffffffffffffffffffffffffffffffffff1603610848575f6040517fec442f0500000000000000000000000000000000000000000000000000000000815260040161083f9190610f50565b60405180910390fd5b6108535f8383610aa5565b5050565b5f73ffffffffffffffffffffffffffffffffffffffff168273ffffffffffffffffffffffffffffffffffffffff16036108c7575f6040517f96c6fd1e0000000000000000000000000000000000000000000000000000000081526004016108be9190610f50565b60405180910390fd5b6108d2825f83610aa5565b5050565b5f73ffffffffffffffffffffffffffffffffffffffff168473ffffffffffffffffffffffffffffffffffffffff1603610946575f6040517fe602df0500000000000000000000000000000000000000000000000000000000815260040161093d9190610f50565b60405180910390fd5b5f73ffffffffffffffffffffffffffffffffffffffff168373ffffffffffffffffffffffffffffffffffffffff16036109b6575f6040517f94280d620000000000000000000000000000000000000000000000000000000081526004016109ad9190610f50565b60405180910390fd5b8160015f8673ffffffffffffffffffffffffffffffffffffffff1673ffffffffffffffffffffffffffffffffffffffff1681526020019081526020015f205f8573ffffffffffffffffffffffffffffffffffffffff1673ffffffffffffffffffffffffffffffffffffffff1681526020019081526020015f20819055508015610a9f578273ffffffffffffffffffffffffffffffffffffffff168473ffffffffffffffffffffffffffffffffffffffff167f8c5be1e5ebec7d5bd14f71427d1e84f3dd0314c0f7b2291e5b200ac8c7c3b92584604051610a969190610e79565b60405180910390a35b50505050565b5f73ffffffffffffffffffffffffffffffffffffffff168373ffffffffffffffffffffffffffffffffffffffff1603610af5578060025f828254610ae991906110ce565b92505081905550610bc3565b5f805f8573ffffffffffffffffffffffffffffffffffffffff1673ffffffffffffffffffffffffffffffffffffffff1681526020019081526020015f2054905081811015610b7e578381836040517fe450d38c000000000000000000000000000000000000000000000000000000008152600401610b759392919061106c565b60405180910390fd5b8181035f808673ffffffffffffffffffffffffffffffffffffffff1673ffffffffffffffffffffffffffffffffffffffff1681526020019081526020015f2081905550505b5f73ffffffffffffffffffffffffffffffffffffffff168273ffffffffffffffffffffffffffffffffffffffff1603610c0a578060025f8282540392505081905550610c54565b805f808473ffffffffffffffffffffffffffffffffffffffff1673ffffffffffffffffffffffffffffffffffffffff1681526020019081526020015f205f82825401925050819055505b8173ffffffffffffffffffffffffffffffffffffffff168373ffffffffffffffffffffffffffffffffffffffff167fddf252ad1be2c89b69c2b068fc378daa952ba7f163c4a11628f55a4df523b3ef83604051610cb19190610e79565b60405180910390a3505050565b5f81519050919050565b5f82825260208201905092915050565b5f5b83811015610cf5578082015181840152602081019050610cda565b5f8484015250505050565b5f601f19601f8301169050919050565b5f610d1a82610cbe565b610d248185610cc8565b9350610d34818560208601610cd8565b610d3d81610d00565b840191505092915050565b5f6020820190508181035f830152610d608184610d10565b905092915050565b5f80fd5b5f73ffffffffffffffffffffffffffffffffffffffff82169050919050565b5f610d9582610d6c565b9050919050565b610da581610d8b565b8114610daf575f80fd5b50565b5f81359050610dc081610d9c565b92915050565b5f819050919050565b610dd881610dc6565b8114610de2575f80fd5b50565b5f81359050610df381610dcf565b92915050565b5f8060408385031215610e0f57610e0e610d68565b5b5f610e1c85828601610db2565b9250506020610e2d85828601610de5565b9150509250929050565b5f8115159050919050565b610e4b81610e37565b82525050565b5f602082019050610e645f830184610e42565b92915050565b610e7381610dc6565b82525050565b5f602082019050610e8c5f830184610e6a565b92915050565b5f805f60608486031215610ea957610ea8610d68565b5b5f610eb686828701610db2565b9350506020610ec786828701610db2565b9250506040610ed886828701610de5565b9150509250925092565b5f60ff82169050919050565b610ef781610ee2565b82525050565b5f602082019050610f105f830184610eee565b92915050565b5f60208284031215610f2b57610f2a610d68565b5b5f610f3884828501610db2565b91505092915050565b610f4a81610d8b565b82525050565b5f602082019050610f635f830184610f41565b92915050565b5f8060408385031215610f7f57610f7e610d68565b5b5f610f8c85828601610db2565b9250506020610f9d85828601610db2565b9150509250929050565b7f4e487b71000000000000000000000000000000000000000000000000000000005f52602260045260245ffd5b5f6002820490506001821680610feb57607f821691505b602082108103610ffe57610ffd610fa7565b5b50919050565b7f6f776e657220726573747269637465642066756e74696f6e616c6974790000005f82015250565b5f611038601d83610cc8565b915061104382611004565b602082019050919050565b5f6020820190508181035f8301526110658161102c565b9050919050565b5f60608201905061107f5f830186610f41565b61108c6020830185610e6a565b6110996040830184610e6a565b949350505050565b7f4e487b71000000000000000000000000000000000000000000000000000000005f52601160045260245ffd5b5f6110d882610dc6565b91506110e383610dc6565b92508282019050808211156110fb576110fa6110a1565b5b9291505056fea26469706673582212200faed4b22c19c623fb9d022b44f8dba0f11c8833d1dcba57ebee409465b80a5e64736f6c63430008140033608060405234801561000f575f80fd5b506107828061001d5f395ff3fe608060405234801561000f575f80fd5b5060043610610034575f3560e01c80638c8d98a014610038578063a6f0e57714610068575b5f80fd5b610052600480360381019061004d91906104b0565b610098565b60405161005f9190610518565b60405180910390f35b610082600480360381019061007d9190610531565b6103b2565b60405161008f9190610576565b60405180910390f35b5f806107b290505b8461ffff168161ffff1610156100fb576100b9816103b2565b156100d5576301e28500826100ce91906105bc565b91506100e8565b6301e13380826100e591906105bc565b91505b80806100f3906105ef565b9150506100a0565b61010361041c565b601f815f600c811061011857610117610618565b5b602002019060ff16908160ff1681525050610132866103b2565b1561016357601d816001600c811061014d5761014c610618565b5b602002019060ff16908160ff168152505061018b565b601c816001600c811061017957610178610618565b5b602002019060ff16908160ff16815250505b601f816002600c81106101a1576101a0610618565b5b602002019060ff16908160ff1681525050601e816003600c81106101c8576101c7610618565b5b602002019060ff16908160ff1681525050601f816004600c81106101ef576101ee610618565b5b602002019060ff16908160ff1681525050601e816005600c811061021657610215610618565b5b602002019060ff16908160ff1681525050601f816006600c811061023d5761023c610618565b5b602002019060ff16908160ff1681525050601f816007600c811061026457610263610618565b5b602002019060ff16908160ff1681525050601e816008600c811061028b5761028a610618565b5b602002019060ff16908160ff1681525050601f816009600c81106102b2576102b1610618565b5b602002019060ff16908160ff1681525050601e81600a600c81106102d9576102d8610618565b5b602002019060ff16908160ff1681525050601f81600b600c8110610300576102ff610618565b5b602002019060ff16908160ff1681525050600191505b8460ff168261ffff16101561037e57806001836103339190610645565b61ffff16600c811061034857610347610618565b5b602002015160ff166201518061035e919061067a565b8361036991906105bc565b92508180610376906105ef565b925050610316565b60018461038b91906106bb565b60ff166201518061039c919061067a565b836103a791906105bc565b925050509392505050565b5f806004836103c1919061071c565b61ffff16146103d2575f9050610417565b5f6064836103e0919061071c565b61ffff16146103f25760019050610417565b5f61019083610401919061071c565b61ffff1614610412575f9050610417565b600190505b919050565b604051806101800160405280600c90602082028036833780820191505090505090565b5f80fd5b5f61ffff82169050919050565b61045981610443565b8114610463575f80fd5b50565b5f8135905061047481610450565b92915050565b5f60ff82169050919050565b61048f8161047a565b8114610499575f80fd5b50565b5f813590506104aa81610486565b92915050565b5f805f606084860312156104c7576104c661043f565b5b5f6104d486828701610466565b93505060206104e58682870161049c565b92505060406104f68682870161049c565b9150509250925092565b5f819050919050565b61051281610500565b82525050565b5f60208201905061052b5f830184610509565b92915050565b5f602082840312156105465761054561043f565b5b5f61055384828501610466565b91505092915050565b5f8115159050919050565b6105708161055c565b82525050565b5f6020820190506105895f830184610567565b92915050565b7f4e487b71000000000000000000000000000000000000000000000000000000005f52601160045260245ffd5b5f6105c682610500565b91506105d183610500565b92508282019050808211156105e9576105e861058f565b5b92915050565b5f6105f982610443565b915061ffff820361060d5761060c61058f565b5b600182019050919050565b7f4e487b71000000000000000000000000000000000000000000000000000000005f52603260045260245ffd5b5f61064f82610443565b915061065a83610443565b9250828203905061ffff8111156106745761067361058f565b5b92915050565b5f61068482610500565b915061068f83610500565b925082820261069d81610500565b915082820484148315176106b4576106b361058f565b5b5092915050565b5f6106c58261047a565b91506106d08361047a565b9250828203905060ff8111156106e9576106e861058f565b5b92915050565b7f4e487b71000000000000000000000000000000000000000000000000000000005f52601260045260245ffd5b5f61072682610443565b915061073183610443565b925082610741576107406106ef565b5b82820690509291505056fea2646970667358221220b3ea1df7ebb18f7ea4cb4261d80017e3bba5cd6d170850eeaa6d096806d1807e64736f6c63430008140033",
  "immutableReferences": {},
  "source": "//SPDX-License-Identifier: Unlicense\r\npragma solidity >=0.7.0 <0.9.0;\r\n\r\nimport \"../../node_modules/@openzeppelin/contracts/token/ERC20/ERC20.sol\";\r\nimport \"../../node_modules/@openzeppelin/contracts/utils/math/Math.sol\";\r\n\r\nimport './HotelToken.sol';\r\nimport './TimeManager.sol';\r\n\r\ncontract Hotel {\r\n    // 1 token = 1 day \r\n    HotelToken public hotelToken;\r\n    // used for time conversions\r\n    TimeManager private timeManager;\r\n    address payable public owner;\r\n    // price of one token in ETH\r\n    uint64 public hotelTokenPrice;\r\n    uint256 deployTime;\r\n    bool public roomKeyOpen; \r\n\r\n    struct RoomPass {\r\n        uint32 password;\r\n        bool used;\r\n    }\r\n    RoomPass public roomPass;\r\n\r\n    struct Appointment {\r\n        bool isAppointment;\r\n        string partyName;\r\n        address userAddress;\r\n    }\r\n\r\n    // user appointment saveing in userBookings array\r\n    struct UserBooking {\r\n        uint256 timestamp;\r\n        uint8 numDays;\r\n        bool isCheckedIn;\r\n        //roomnum\r\n    }\r\n\r\n    // this contract uses unix time for booking days; keys must be mod 86400\r\n    mapping(uint256 => Appointment) scheduleByTimestamp;\r\n    // list of all timestamps for a given user; key is user address\r\n    // set an array length if you are worried about variable gas consumption\r\n    mapping(address => UserBooking[]) public userBookings;\r\n\r\n    event TokenPriceChanged(uint64 oldPrice, uint64 newPrice);\r\n    event TokenBought(address indexed from, uint256 sum, uint64 price);\r\n    event AppointmentScheduled(address indexed from, uint256 timestamp, uint256 sum);\r\n    event AppointmentRefunded(address indexed from, uint256 timestamp, uint256 sum);\r\n    event CheckedIn(address indexed user, uint256 timestamp);\r\n    event CheckedOut(address indexed user, uint256 timestamp);\r\n    event generatedOTP(address indexed user, uint256 timestamp);\r\n    event keyOpened(address indexed user, uint256 timestamp);\r\n    event keyLocked(address indexed user, uint256 timestamp);\r\n\r\n    modifier onlyOwner() {\r\n        require(msg.sender == owner, \"owner restricted funtionality\");\r\n        _;\r\n    }\r\n\r\n    modifier validMonth(uint8 _m) {\r\n        require(_m > 0 && _m < 13, \"Month must be 1 - 12 value\");\r\n        _;\r\n    }\r\n\r\n    modifier validDay(uint8 _d) {\r\n        require(_d > 0 && _d < 32, \"Invalid day\");\r\n        _;\r\n    }\r\n\r\n    modifier validNumDays(uint8 _num) {\r\n        require(_num > 0, \"Must be a value above 0\");\r\n        _;\r\n    }\r\n    // timestamp cannot be before deployTime && must be mod 0\r\n    // this is because we use unix days as our mapping keys\r\n    modifier validTimestamp(uint256 _t) {\r\n        validateTimestamp(_t);\r\n        _;\r\n    }\r\n\r\n    // valid read range - can't request more than 365 days at a time and timestamp must be mod 86400\r\n    modifier validAppoRange(uint256 _t, uint8 _r) {\r\n        isMod86400(_t);\r\n        require(_r <= 365 && _r > 0, \"Valid ranges are 1 - 365\");\r\n        _;\r\n    }\r\n\r\n    // name can't be empty\r\n    modifier validName(string memory _s) {\r\n        require(bytes(_s).length != 0, \"Party name cannot be blank\");\r\n        _;\r\n    }\r\n\r\n    constructor(\r\n        uint64 _initialPrice\r\n    ) {\r\n        deployTime = block.timestamp;\r\n        hotelToken = new HotelToken(address(this));\r\n        owner = payable(msg.sender);\r\n        // timeManager Contract\r\n        timeManager = new TimeManager();\r\n        hotelTokenPrice = _initialPrice;\r\n    }\r\n\r\n    //timestamp cannot be before deployTime && must be mod 86400\r\n    //because we use unix days as our mapping keys\r\n    function validateTimestamp(uint256 _t) private view {\r\n        require(\r\n            _t > deployTime,\r\n            \"Cannot use any timestamp before the contract deploy timestamp\"\r\n        );\r\n        isMod86400(_t);\r\n    }\r\n\r\n    function isMod86400(uint256 _t) private pure {\r\n        require(\r\n            _t % 86400 == 0,\r\n            \"Timestamp must be mod 86400; try using getUnixTimestamp for a given month, day, year\"\r\n        );\r\n    }\r\n\r\n    //get a unix timestamp given month, day, year.\r\n    //Can be calculated on the front-end\r\n    //returns mod86400 uint256\r\n    function getUnixTimestamp(\r\n        uint8 _month,\r\n        uint8 _day,\r\n        uint16 _year\r\n    ) public view returns (uint256) {\r\n        return timeManager.toTimestamp(_year, _month, _day);\r\n    }\r\n\r\n    //return balanceOf a given address from our token contract\r\n    function getTokenBalance(address _addr) public view returns (uint256) {\r\n        return hotelToken.balanceOf(_addr);\r\n    }\r\n\r\n    //return all bookings for a given address\r\n    //userBookings is a dynamic array, so this function is meant to be read-only and should not be used in any state-altering functionality\r\n    function getAppointmentsByUser(address _addr)\r\n        public\r\n        view\r\n        returns (UserBooking[] memory)\r\n    {\r\n        return userBookings[_addr];\r\n    }\r\n\r\n    //Returns an array of events for a given range\r\n    function getRangeAvailability(uint256 _start, uint8 _numDays)\r\n        public\r\n        view\r\n        validAppoRange(_start, _numDays)\r\n        returns (address[] memory)\r\n    {\r\n        uint8 i = 0;\r\n        // up to 31 days in a month\r\n        address[] memory monthlyAppointments = new address[](_numDays);\r\n        for (i; i < _numDays; i++) {\r\n            Appointment memory foundAppointment = scheduleByTimestamp[\r\n                _start + (i * 86400)\r\n            ];\r\n            if (foundAppointment.isAppointment) {\r\n                monthlyAppointments[i] = foundAppointment.userAddress;\r\n            }\r\n        }\r\n        // returns an array with the correct number of days\r\n        return monthlyAppointments;\r\n    }\r\n\r\n    //timestamp must be mod 86400 and _numDays must match total tickets\r\n    function bookAppointment(\r\n        string memory _name,\r\n        uint256 _timestamp,\r\n        uint8 _numDays\r\n    )\r\n        public\r\n        validName(_name)\r\n        validTimestamp(_timestamp)\r\n        validNumDays(_numDays)\r\n    {\r\n        hotelToken.burnToken(msg.sender, _numDays);\r\n        uint8 i = 0;\r\n\r\n        for (i; i < _numDays; i++) {\r\n            // Solidity reverts state changes when require is violated\r\n            // this allows us to loop through and create the necessary stateChanges in 1 for loop\r\n            require(\r\n                scheduleByTimestamp[_timestamp + (86400 * i)].isAppointment !=\r\n                    true,\r\n                \"Appointment already exists on one or more of the requested dates\"\r\n            );\r\n            // save each booking day indexed by timestamp; this makes it easy to look up a range of days by unix uint256 mod 86400\r\n            scheduleByTimestamp[_timestamp + (86400 * i)] = Appointment(\r\n                true,\r\n                _name,\r\n                msg.sender\r\n            );\r\n        }\r\n        // save all user timestamps in array - we can use the timestamp + numDays as keys to our primary Appointment mapping\r\n        userBookings[msg.sender].push(UserBooking(_timestamp, _numDays, false));\r\n\r\n        emit AppointmentScheduled(msg.sender, _timestamp, _numDays);\r\n    }\r\n\r\n    function removeUserBooking(uint256 _indexToDelete) internal {\r\n        require(_indexToDelete < userBookings[msg.sender].length);\r\n        userBookings[msg.sender][_indexToDelete] = userBookings[msg.sender][\r\n            userBookings[msg.sender].length - 1\r\n        ];\r\n        userBookings[msg.sender].pop();\r\n    }\r\n\r\n    //for a production app you should cap maxRedemptions for users to avoid cancellation abuse\r\n    function refundAppo(uint8 _index) public {\r\n        // first get the timestamp and numdays from timestamp from the index\r\n        //require(userBookings[msg.sender][_index].isCheckedIn != true, \"You cannot refund appo that checked in\");\r\n        uint256 timestamp = userBookings[msg.sender][_index].timestamp;\r\n        uint8 numDays = userBookings[msg.sender][_index].numDays;\r\n        require(timestamp > 0 && numDays > 0, \"no booking found at that index\");\r\n        validateTimestamp(timestamp);\r\n        // cannot cancel past events\r\n        require(\r\n            timestamp > block.timestamp,\r\n            \"cannot cancel events in the past\"\r\n        );\r\n        uint8 i = 0;\r\n        for (i; i < numDays; i++) {\r\n            uint256 currDay = timestamp + (86400 * i);\r\n            // Solidity reverts state changes when require is violated\r\n            // this allows us to loop through and create the necessary stateChanges in 1 for loop\r\n            require(\r\n                scheduleByTimestamp[currDay].isAppointment == true,\r\n                \"Appointment does not exist\"\r\n            );\r\n            require(\r\n                scheduleByTimestamp[currDay].userAddress == msg.sender,\r\n                \"Cannot refund an appointment msg.sender did not create\"\r\n            );\r\n            // this effectively deletes the event\r\n            scheduleByTimestamp[currDay].isAppointment = false;\r\n        }\r\n        //\r\n        removeUserBooking(_index);\r\n        //\r\n        hotelToken.mintToken(msg.sender, numDays);\r\n        //UIemit\r\n        emit AppointmentRefunded(msg.sender, timestamp, numDays);\r\n    }\r\n\r\n    //1ETH\r\n    function changeTokenPrice(uint64 _newPrice) public onlyOwner {\r\n        require(_newPrice > 0, \"New price must be more than zero\");\r\n        // emit an event w/ new and old values\r\n        emit TokenPriceChanged(hotelTokenPrice, _newPrice);\r\n        //check if msg.sender have minter role\r\n        hotelTokenPrice = _newPrice;\r\n    }\r\n\r\n    function buyTokens(uint256 _numTokens) public payable {\r\n        require(msg.value > 0, \"must send ether in request\");\r\n        require(msg.value >= hotelTokenPrice, \"not enough ether sent in request\");\r\n        // transfers ETH to owner account\r\n        (bool sent, ) = owner.call{value: msg.value}(\"\");\r\n        require(sent, \"Failed to send Ether\");\r\n        hotelToken.mintToken(msg.sender, _numTokens);\r\n        // use hotelTokenPrice for easy human-readable USD value\r\n        emit TokenBought(msg.sender, _numTokens, hotelTokenPrice);\r\n    }\r\n\r\n    function checkIn(uint256 _timestamp, uint8 _index) public validTimestamp(_timestamp) { //\r\n        Appointment memory appointment = scheduleByTimestamp[_timestamp];\r\n        require(appointment.isAppointment, \"No appointment exists at this timestamp\");\r\n        require(appointment.userAddress == msg.sender, \"You do not own this appointment\");\r\n        require(userBookings[msg.sender][_index].isCheckedIn != true, \"You have already checked in\");\r\n\r\n        //\r\n        userBookings[msg.sender][_index].isCheckedIn = true;\r\n\r\n        emit CheckedIn(msg.sender, block.timestamp);\r\n    }\r\n\r\n    function checkOut(uint256 _timestamp, uint8 _index) public validTimestamp(_timestamp) {\r\n        Appointment memory appointment = scheduleByTimestamp[_timestamp];\r\n        require(appointment.isAppointment, \"No appointment exists at this timestamp\");\r\n        require(appointment.userAddress == msg.sender, \"You do not own this appointment\");\r\n        require(userBookings[msg.sender][_index].isCheckedIn == true, \"You have not checked in\");\r\n\r\n        //\r\n        userBookings[msg.sender][_index].isCheckedIn = false;\r\n        removeUserBooking(_index);  //\r\n        emit CheckedOut(msg.sender, block.timestamp);\r\n    }\r\n\r\n    //\r\n    function generateOTP(uint256 _timestamp, uint8 _index) public returns (uint32 pass) {\r\n        Appointment memory appointment = scheduleByTimestamp[_timestamp];\r\n        require(appointment.isAppointment, \"No appointment exists at this timestamp\");\r\n        require(appointment.userAddress == msg.sender, \"You do not own this appointment\");\r\n        require(userBookings[appointment.userAddress][_index].isCheckedIn, \"User must be checked in to generate a one-time code\");\r\n\r\n        // Generate a one-time code (e.g., a random number)\r\n        roomPass.password = 0; //reset\r\n        uint256 oneTimeCode = uint256(keccak256(abi.encodePacked(block.timestamp, block.prevrandao, msg.sender, _timestamp, _index)));\r\n        uint8 passMark = uint8(oneTimeCode % 75);\r\n\r\n        if (passMark >= 6) {// Store the one-time code for the user and room\r\n            for (uint8 i = 0; i < 6; i++) {\r\n                roomPass.password += uint32(((oneTimeCode / 10**(passMark - i)) % 10) * 10**(passMark - i)); \r\n            }\r\n        } else {\r\n            for (uint8 i = 0; i < 6; i++) {\r\n                roomPass.password += uint32(((oneTimeCode / 10**(i + passMark)) % 10) * 10**(i + passMark)); \r\n            }\r\n        }\r\n        pass = roomPass.password;\r\n        roomPass.used = false;  //issue\r\n\r\n        // Emit an event with the one-time code\r\n        emit generatedOTP(appointment.userAddress, block.timestamp);\r\n    }\r\n    //\r\n    function keyOpen(uint32 _input, uint256 _timestamp, uint8 _index) public {\r\n        Appointment memory appointment = scheduleByTimestamp[_timestamp];\r\n        require(appointment.isAppointment, \"No appointment exists at this timestamp\");\r\n        require(appointment.userAddress == msg.sender, \"You do not own this appointment\");\r\n        require(userBookings[appointment.userAddress][_index].isCheckedIn, \"User must be checked in to open key\");\r\n        require(roomKeyOpen == false, \"This room is already opened\");\r\n        require(roomPass.used == false, \"Please regenerate password\");\r\n\r\n        if (_input == roomPass.password) {  ////////////////\r\n            roomPass.used = true;\r\n            roomKeyOpen = true;\r\n        } \r\n\r\n        emit keyOpened(appointment.userAddress, block.timestamp);  //roomnum\r\n    }\r\n\r\n    function keyLock(uint256 _timestamp, uint8 _index) public {\r\n        Appointment memory appointment = scheduleByTimestamp[_timestamp];\r\n        require(appointment.isAppointment, \"No appointment exists at this timestamp\");\r\n        require(appointment.userAddress == msg.sender, \"You do not own this appointment\");\r\n        require(userBookings[appointment.userAddress][_index].isCheckedIn, \"User must be checked in to lock the key\");\r\n        require(roomKeyOpen == true, \"This room is already closed\");\r\n        //require(roomPass.used == true, \"Room key must be used before locking\");\r\n\r\n        // Lock the room key\r\n        roomKeyOpen = false;\r\n\r\n        // Emit an event to indicate that the key is locked\r\n        emit keyLocked(appointment.userAddress, block.timestamp);\r\n    }\r\n}\r\n\r\n",
  "sourcePath": "C:\\Users\\Hong lab\\project\\smart-hotel\\src\\contracts\\SmartHotel.sol",
  "compiler": {
    "name": "solc",
    "version": "0.8.20+commit.a1b79de6.Emscripten.clang"
  },
  "schemaVersion": "3.4.14",
  "updatedAt": "2023-10-25T10:23:22.502Z",
  "devdoc": {
    "kind": "dev",
    "methods": {},
    "version": 1
  },
  "userdoc": {
    "kind": "user",
    "methods": {},
    "version": 1
  }
}