{
  "contractName": "Modifi",
  "abi": [
    {
      "inputs": [],
      "stateMutability": "nonpayable",
      "type": "constructor"
    },
    {
      "inputs": [],
      "name": "owner",
      "outputs": [
        {
          "internalType": "address payable",
          "name": "",
          "type": "address"
        }
      ],
      "stateMutability": "view",
      "type": "function"
    }
  ],
  "bytecode": "0x608060405234801561001057600080fd5b50336000806101000a81548173ffffffffffffffffffffffffffffffffffffffff021916908373ffffffffffffffffffffffffffffffffffffffff1602179055504260018190555060f7806100666000396000f3fe6080604052348015600f57600080fd5b506004361060285760003560e01c80638da5cb5b14602d575b600080fd5b60336047565b604051603e919060a8565b60405180910390f35b60008054906101000a900473ffffffffffffffffffffffffffffffffffffffff1681565b600073ffffffffffffffffffffffffffffffffffffffff82169050919050565b6000609482606b565b9050919050565b60a281608b565b82525050565b600060208201905060bb6000830184609b565b9291505056fea26469706673582212208c3e4057853279982bd39a6b6db5f842b1142b92b6a8d5568dd7cc5b2cab0fc264736f6c63430008130033",
  "immutableReferences": {},
  "source": "//SPDX-License-Identifier: Unlicense\r\npragma solidity >=0.7.0 <0.9.0;\r\n\r\ncontract Modifi {\r\n\r\n    address  payable public owner;\r\n    uint256 deployTime;\r\n\r\n    constructor() {\r\n        owner = payable(msg.sender);\r\n        deployTime = block.timestamp;\r\n    }\r\n\r\n    function _onlyOwner() private view{\r\n        require(msg.sender == owner, \"owner restricted funtionality\");\r\n    }\r\n\r\n    modifier onlyOwner() {\r\n        _onlyOwner();\r\n        _;\r\n    }\r\n\r\n    function _validMonth(uint8 _m) private pure{\r\n        require(_m > 0 && _m < 13, \"Month must be 1 - 12 value\");\r\n    }\r\n\r\n    modifier validMonth(uint8 _m) {\r\n        _validMonth(_m);\r\n        _;\r\n    }\r\n\r\n    function _validDay(uint8 _d) private pure{\r\n        require(_d > 0 && _d < 32, \"Invalid day\");\r\n    }\r\n\r\n    modifier validDay(uint8 _d) {\r\n        _validDay(_d);\r\n        _;\r\n    }\r\n\r\n    function _validNumDays(uint8 _num) private pure {\r\n        require(_num > 0, \"Must be a value above 0\");\r\n    }\r\n\r\n    modifier validNumDays(uint8 _num) {\r\n        _validNumDays(_num);\r\n        _;\r\n    }\r\n\r\n    function _validName(string memory _s) private pure {\r\n        require(bytes(_s).length != 0, \"Party name cannot be blank\");\r\n    }\r\n\r\n    // name can't be empty\r\n    modifier validName(string memory _s) {\r\n        _validName(_s);\r\n        _;\r\n    }\r\n}",
  "sourcePath": "C:\\Users\\Hong lab\\project\\smart-hotel\\src\\contracts\\Modifi.sol",
  "compiler": {
    "name": "solc",
    "version": "0.8.19+commit.7dd6d404.Emscripten.clang"
  },
  "schemaVersion": "3.4.14",
  "updatedAt": "2023-10-31T12:12:35.007Z",
  "devdoc": {
    "kind": "dev",
    "methods": {},
    "version": 1
  },
  "userdoc": {
    "kind": "user",
    "methods": {},
    "version": 1
  }
}