{
  "contractName": "SmartHotel",
  "abi": [
    {
      "inputs": [
        {
          "internalType": "uint64",
          "name": "_initialPrice",
          "type": "uint64"
        },
        {
          "internalType": "uint16",
          "name": "_roomNum",
          "type": "uint16"
        }
      ],
      "stateMutability": "nonpayable",
      "type": "constructor"
    },
    {
      "anonymous": false,
      "inputs": [
        {
          "indexed": true,
          "internalType": "address",
          "name": "from",
          "type": "address"
        },
        {
          "indexed": false,
          "internalType": "uint256",
          "name": "timestamp",
          "type": "uint256"
        },
        {
          "indexed": false,
          "internalType": "uint256",
          "name": "span",
          "type": "uint256"
        },
        {
          "indexed": false,
          "internalType": "uint8",
          "name": "index",
          "type": "uint8"
        }
      ],
      "name": "AppoRefunded",
      "type": "event"
    },
    {
      "anonymous": false,
      "inputs": [
        {
          "indexed": true,
          "internalType": "address",
          "name": "from",
          "type": "address"
        },
        {
          "indexed": false,
          "internalType": "uint256",
          "name": "timestamp",
          "type": "uint256"
        },
        {
          "indexed": false,
          "internalType": "uint256",
          "name": "span",
          "type": "uint256"
        },
        {
          "indexed": false,
          "internalType": "uint16",
          "name": "room",
          "type": "uint16"
        }
      ],
      "name": "AppoScheduled",
      "type": "event"
    },
    {
      "anonymous": false,
      "inputs": [
        {
          "indexed": true,
          "internalType": "address",
          "name": "user",
          "type": "address"
        },
        {
          "indexed": false,
          "internalType": "uint256",
          "name": "timestamp",
          "type": "uint256"
        }
      ],
      "name": "CheckedIn",
      "type": "event"
    },
    {
      "anonymous": false,
      "inputs": [
        {
          "indexed": true,
          "internalType": "address",
          "name": "user",
          "type": "address"
        },
        {
          "indexed": false,
          "internalType": "uint256",
          "name": "timestamp",
          "type": "uint256"
        }
      ],
      "name": "CheckedOut",
      "type": "event"
    },
    {
      "anonymous": false,
      "inputs": [
        {
          "indexed": true,
          "internalType": "address",
          "name": "from",
          "type": "address"
        },
        {
          "indexed": false,
          "internalType": "uint256",
          "name": "sum",
          "type": "uint256"
        },
        {
          "indexed": false,
          "internalType": "uint64",
          "name": "price",
          "type": "uint64"
        }
      ],
      "name": "TokenBought",
      "type": "event"
    },
    {
      "anonymous": false,
      "inputs": [
        {
          "indexed": false,
          "internalType": "uint64",
          "name": "oldPrice",
          "type": "uint64"
        },
        {
          "indexed": false,
          "internalType": "uint64",
          "name": "newPrice",
          "type": "uint64"
        }
      ],
      "name": "TokenPriceChanged",
      "type": "event"
    },
    {
      "anonymous": false,
      "inputs": [
        {
          "indexed": true,
          "internalType": "address",
          "name": "user",
          "type": "address"
        },
        {
          "indexed": false,
          "internalType": "uint256",
          "name": "timestamp",
          "type": "uint256"
        }
      ],
      "name": "keyLocked",
      "type": "event"
    },
    {
      "anonymous": false,
      "inputs": [
        {
          "indexed": true,
          "internalType": "address",
          "name": "user",
          "type": "address"
        },
        {
          "indexed": false,
          "internalType": "uint256",
          "name": "timestamp",
          "type": "uint256"
        }
      ],
      "name": "keyOpened",
      "type": "event"
    },
    {
      "anonymous": false,
      "inputs": [
        {
          "indexed": true,
          "internalType": "address",
          "name": "user",
          "type": "address"
        },
        {
          "indexed": false,
          "internalType": "uint256",
          "name": "timestamp",
          "type": "uint256"
        }
      ],
      "name": "roomPassOK",
      "type": "event"
    },
    {
      "inputs": [],
      "name": "hotelToken",
      "outputs": [
        {
          "internalType": "contract HotelToken",
          "name": "",
          "type": "address"
        }
      ],
      "stateMutability": "view",
      "type": "function",
      "constant": true
    },
    {
      "inputs": [],
      "name": "hotelTokenPrice",
      "outputs": [
        {
          "internalType": "uint64",
          "name": "",
          "type": "uint64"
        }
      ],
      "stateMutability": "view",
      "type": "function",
      "constant": true
    },
    {
      "inputs": [],
      "name": "name",
      "outputs": [
        {
          "internalType": "string",
          "name": "",
          "type": "string"
        }
      ],
      "stateMutability": "view",
      "type": "function",
      "constant": true
    },
    {
      "inputs": [],
      "name": "owner",
      "outputs": [
        {
          "internalType": "address payable",
          "name": "",
          "type": "address"
        }
      ],
      "stateMutability": "view",
      "type": "function",
      "constant": true
    },
    {
      "inputs": [
        {
          "internalType": "uint16",
          "name": "",
          "type": "uint16"
        }
      ],
      "name": "roomKeyStates",
      "outputs": [
        {
          "internalType": "bool",
          "name": "",
          "type": "bool"
        }
      ],
      "stateMutability": "view",
      "type": "function",
      "constant": true
    },
    {
      "inputs": [],
      "name": "roomNum",
      "outputs": [
        {
          "internalType": "uint16",
          "name": "",
          "type": "uint16"
        }
      ],
      "stateMutability": "view",
      "type": "function",
      "constant": true
    },
    {
      "inputs": [
        {
          "internalType": "address",
          "name": "",
          "type": "address"
        },
        {
          "internalType": "uint256",
          "name": "",
          "type": "uint256"
        }
      ],
      "name": "userBookings",
      "outputs": [
        {
          "internalType": "uint256",
          "name": "timestamp",
          "type": "uint256"
        },
        {
          "internalType": "uint8",
          "name": "numDays",
          "type": "uint8"
        },
        {
          "internalType": "bool",
          "name": "isCheckedIn",
          "type": "bool"
        },
        {
          "internalType": "uint16",
          "name": "roomId",
          "type": "uint16"
        }
      ],
      "stateMutability": "view",
      "type": "function",
      "constant": true
    },
    {
      "inputs": [
        {
          "internalType": "uint16",
          "name": "_year",
          "type": "uint16"
        },
        {
          "internalType": "uint8",
          "name": "_month",
          "type": "uint8"
        },
        {
          "internalType": "uint8",
          "name": "_day",
          "type": "uint8"
        }
      ],
      "name": "getUnixTimestamp",
      "outputs": [
        {
          "internalType": "uint256",
          "name": "",
          "type": "uint256"
        }
      ],
      "stateMutability": "view",
      "type": "function",
      "constant": true
    },
    {
      "inputs": [
        {
          "internalType": "address",
          "name": "_addr",
          "type": "address"
        }
      ],
      "name": "getTokenBalance",
      "outputs": [
        {
          "internalType": "uint256",
          "name": "",
          "type": "uint256"
        }
      ],
      "stateMutability": "view",
      "type": "function",
      "constant": true
    },
    {
      "inputs": [
        {
          "internalType": "address",
          "name": "_addr",
          "type": "address"
        }
      ],
      "name": "getAppoByUser",
      "outputs": [
        {
          "components": [
            {
              "internalType": "uint256",
              "name": "timestamp",
              "type": "uint256"
            },
            {
              "internalType": "uint8",
              "name": "numDays",
              "type": "uint8"
            },
            {
              "internalType": "bool",
              "name": "isCheckedIn",
              "type": "bool"
            },
            {
              "internalType": "uint16",
              "name": "roomId",
              "type": "uint16"
            }
          ],
          "internalType": "struct SmartHotel.UserBooking[]",
          "name": "",
          "type": "tuple[]"
        }
      ],
      "stateMutability": "view",
      "type": "function",
      "constant": true
    },
    {
      "inputs": [
        {
          "internalType": "uint16",
          "name": "_roomId",
          "type": "uint16"
        },
        {
          "internalType": "uint256",
          "name": "_start",
          "type": "uint256"
        },
        {
          "internalType": "uint8",
          "name": "_numDays",
          "type": "uint8"
        }
      ],
      "name": "getAppoList",
      "outputs": [
        {
          "internalType": "address[]",
          "name": "",
          "type": "address[]"
        }
      ],
      "stateMutability": "view",
      "type": "function",
      "constant": true
    },
    {
      "inputs": [
        {
          "internalType": "uint16",
          "name": "_roomId",
          "type": "uint16"
        },
        {
          "internalType": "string",
          "name": "_name",
          "type": "string"
        },
        {
          "internalType": "uint256",
          "name": "_timestamp",
          "type": "uint256"
        },
        {
          "internalType": "uint8",
          "name": "_numDays",
          "type": "uint8"
        }
      ],
      "name": "bookAppo",
      "outputs": [],
      "stateMutability": "nonpayable",
      "type": "function"
    },
    {
      "inputs": [
        {
          "internalType": "uint8",
          "name": "_index",
          "type": "uint8"
        }
      ],
      "name": "refundAppo",
      "outputs": [],
      "stateMutability": "nonpayable",
      "type": "function"
    },
    {
      "inputs": [
        {
          "internalType": "uint64",
          "name": "_newPrice",
          "type": "uint64"
        }
      ],
      "name": "changeTokenPrice",
      "outputs": [],
      "stateMutability": "nonpayable",
      "type": "function"
    },
    {
      "inputs": [
        {
          "internalType": "uint64",
          "name": "_numTokens",
          "type": "uint64"
        }
      ],
      "name": "buyTokens",
      "outputs": [],
      "stateMutability": "payable",
      "type": "function",
      "payable": true
    },
    {
      "inputs": [
        {
          "internalType": "uint256",
          "name": "_timestamp",
          "type": "uint256"
        },
        {
          "internalType": "uint8",
          "name": "_index",
          "type": "uint8"
        }
      ],
      "name": "checkIn",
      "outputs": [],
      "stateMutability": "nonpayable",
      "type": "function"
    },
    {
      "inputs": [
        {
          "internalType": "uint256",
          "name": "_timestamp",
          "type": "uint256"
        },
        {
          "internalType": "uint8",
          "name": "_index",
          "type": "uint8"
        }
      ],
      "name": "checkOut",
      "outputs": [],
      "stateMutability": "nonpayable",
      "type": "function"
    },
    {
      "inputs": [
        {
          "internalType": "uint8[6]",
          "name": "_input",
          "type": "uint8[6]"
        },
        {
          "internalType": "uint256",
          "name": "_timestamp",
          "type": "uint256"
        },
        {
          "internalType": "uint8",
          "name": "_index",
          "type": "uint8"
        }
      ],
      "name": "roomPassSet",
      "outputs": [],
      "stateMutability": "nonpayable",
      "type": "function"
    },
    {
      "inputs": [
        {
          "internalType": "uint8[6]",
          "name": "_input",
          "type": "uint8[6]"
        },
        {
          "internalType": "uint256",
          "name": "_timestamp",
          "type": "uint256"
        },
        {
          "internalType": "uint8",
          "name": "_index",
          "type": "uint8"
        }
      ],
      "name": "keyOpen",
      "outputs": [],
      "stateMutability": "nonpayable",
      "type": "function"
    },
    {
      "inputs": [
        {
          "internalType": "uint256",
          "name": "_timestamp",
          "type": "uint256"
        },
        {
          "internalType": "uint8",
          "name": "_index",
          "type": "uint8"
        }
      ],
      "name": "keyLock",
      "outputs": [],
      "stateMutability": "nonpayable",
      "type": "function"
    },
    {
      "inputs": [
        {
          "internalType": "uint16",
          "name": "_roomId",
          "type": "uint16"
        },
        {
          "internalType": "uint256",
          "name": "_timestamp",
          "type": "uint256"
        }
      ],
      "name": "showAppo",
      "outputs": [
        {
          "components": [
            {
              "internalType": "bool",
              "name": "isAppointment",
              "type": "bool"
            },
            {
              "internalType": "string",
              "name": "partyName",
              "type": "string"
            },
            {
              "internalType": "address",
              "name": "userAddress",
              "type": "address"
            }
          ],
          "internalType": "struct SmartHotel.Appointment",
          "name": "appo",
          "type": "tuple"
        }
      ],
      "stateMutability": "view",
      "type": "function",
      "constant": true
    },
    {
      "inputs": [
        {
          "internalType": "uint8",
          "name": "_index",
          "type": "uint8"
        }
      ],
      "name": "isCheckedIn",
      "outputs": [
        {
          "components": [
            {
              "internalType": "uint256",
              "name": "timestamp",
              "type": "uint256"
            },
            {
              "internalType": "uint8",
              "name": "numDays",
              "type": "uint8"
            },
            {
              "internalType": "bool",
              "name": "isCheckedIn",
              "type": "bool"
            },
            {
              "internalType": "uint16",
              "name": "roomId",
              "type": "uint16"
            }
          ],
          "internalType": "struct SmartHotel.UserBooking",
          "name": "booking",
          "type": "tuple"
        }
      ],
      "stateMutability": "view",
      "type": "function",
      "constant": true
    },
    {
      "inputs": [
        {
          "internalType": "uint16",
          "name": "_roomId",
          "type": "uint16"
        }
      ],
      "name": "isDoorOpen",
      "outputs": [
        {
          "internalType": "bool",
          "name": "",
          "type": "bool"
        }
      ],
      "stateMutability": "view",
      "type": "function",
      "constant": true
    }
  ],
  "bytecode": "0x60806040526040518060400160405280600a81526020017f536d617274486f74656c00000000000000000000000000000000000000000000815250600090816200004a91906200048f565b503480156200005857600080fd5b5060405162007ed638038062007ed683398181016040528101906200007e9190620005ff565b42600481905550306040516200009490620001f9565b620000a091906200068b565b604051809103906000f080158015620000bd573d6000803e3d6000fd5b50600160006101000a81548173ffffffffffffffffffffffffffffffffffffffff021916908373ffffffffffffffffffffffffffffffffffffffff16021790555033600360006101000a81548173ffffffffffffffffffffffffffffffffffffffff021916908373ffffffffffffffffffffffffffffffffffffffff1602179055506040516200014d9062000207565b604051809103906000f0801580156200016a573d6000803e3d6000fd5b50600260006101000a81548173ffffffffffffffffffffffffffffffffffffffff021916908373ffffffffffffffffffffffffffffffffffffffff16021790555081600360166101000a81548167ffffffffffffffff021916908367ffffffffffffffff16021790555080600360146101000a81548161ffff021916908361ffff1602179055505050620006a8565b6116ae8062005f4283390190565b6108e680620075f083390190565b600081519050919050565b7f4e487b7100000000000000000000000000000000000000000000000000000000600052604160045260246000fd5b7f4e487b7100000000000000000000000000000000000000000000000000000000600052602260045260246000fd5b600060028204905060018216806200029757607f821691505b602082108103620002ad57620002ac6200024f565b5b50919050565b60008190508160005260206000209050919050565b60006020601f8301049050919050565b600082821b905092915050565b600060088302620003177fffffffffffffffffffffffffffffffffffffffffffffffffffffffffffffffff82620002d8565b620003238683620002d8565b95508019841693508086168417925050509392505050565b6000819050919050565b6000819050919050565b6000620003706200036a62000364846200033b565b62000345565b6200033b565b9050919050565b6000819050919050565b6200038c836200034f565b620003a46200039b8262000377565b848454620002e5565b825550505050565b600090565b620003bb620003ac565b620003c881848462000381565b505050565b5b81811015620003f057620003e4600082620003b1565b600181019050620003ce565b5050565b601f8211156200043f576200040981620002b3565b6200041484620002c8565b8101602085101562000424578190505b6200043c6200043385620002c8565b830182620003cd565b50505b505050565b600082821c905092915050565b6000620004646000198460080262000444565b1980831691505092915050565b60006200047f838362000451565b9150826002028217905092915050565b6200049a8262000215565b67ffffffffffffffff811115620004b657620004b562000220565b5b620004c282546200027e565b620004cf828285620003f4565b600060209050601f831160018114620005075760008415620004f2578287015190505b620004fe858262000471565b8655506200056e565b601f1984166200051786620002b3565b60005b8281101562000541578489015182556001820191506020850194506020810190506200051a565b868310156200056157848901516200055d601f89168262000451565b8355505b6001600288020188555050505b505050505050565b600080fd5b600067ffffffffffffffff82169050919050565b6200059a816200057b565b8114620005a657600080fd5b50565b600081519050620005ba816200058f565b92915050565b600061ffff82169050919050565b620005d981620005c0565b8114620005e557600080fd5b50565b600081519050620005f981620005ce565b92915050565b6000806040838503121562000619576200061862000576565b5b60006200062985828601620005a9565b92505060206200063c85828601620005e8565b9150509250929050565b600073ffffffffffffffffffffffffffffffffffffffff82169050919050565b6000620006738262000646565b9050919050565b620006858162000666565b82525050565b6000602082019050620006a260008301846200067a565b92915050565b61588a80620006b86000396000f3fe6080604052600436106101405760003560e01c806348f0478b116100b6578063c7de29f71161006f578063c7de29f714610483578063d03d66fc146104c0578063df1e02e7146104e9578063e3a4d3a214610514578063eef3f41e14610554578063f9da89c91461057d57610140565b806348f0478b1461037557806361d60cb3146103a05780637a11308f146103c95780637ec4e61d146103f2578063844d18d51461041b5780638da5cb5b1461045857610140565b80632352cfee116101085780632352cfee1461023c5780632848a1c8146102795780632acfb739146102a25780632c795868146102be5780633aecd0e3146102fb57806340bcdd6e1461033857610140565b806304d5a9301461014557806306fdde03146101825780630c6dc827146101ad5780630cf9f9f4146101d6578063131104a5146101ff575b600080fd5b34801561015157600080fd5b5061016c600480360381019061016791906137d8565b6105a8565b604051610179919061391b565b60405180910390f35b34801561018e57600080fd5b506101976108bb565b6040516101a491906139cd565b60405180910390f35b3480156101b957600080fd5b506101d460048036038101906101cf91906139ef565b610949565b005b3480156101e257600080fd5b506101fd60048036038101906101f89190613b52565b610e03565b005b34801561020b57600080fd5b5061022660048036038101906102219190613ba6565b6112b9565b6040516102339190613c08565b60405180910390f35b34801561024857600080fd5b50610263600480360381019061025e9190613c23565b611364565b6040516102709190613d18565b60405180910390f35b34801561028557600080fd5b506102a0600480360381019061029b9190613b52565b6114b9565b005b6102bc60048036038101906102b79190613d7a565b6119dd565b005b3480156102ca57600080fd5b506102e560048036038101906102e09190613da7565b611d21565b6040516102f29190613de3565b60405180910390f35b34801561030757600080fd5b50610322600480360381019061031d9190613e2a565b611d53565b60405161032f9190613c08565b60405180910390f35b34801561034457600080fd5b5061035f600480360381019061035a9190613e2a565b611df8565b60405161036c9190613f88565b60405180910390f35b34801561038157600080fd5b5061038a611ef8565b6040516103979190614009565b60405180910390f35b3480156103ac57600080fd5b506103c760048036038101906103c29190614024565b611f1e565b005b3480156103d557600080fd5b506103f060048036038101906103eb9190613d7a565b612320565b005b3480156103fe57600080fd5b5061041960048036038101906104149190614119565b612478565b005b34801561042757600080fd5b50610442600480360381019061043d9190613da7565b612933565b60405161044f9190613de3565b60405180910390f35b34801561046457600080fd5b5061046d612953565b60405161047a91906141bd565b60405180910390f35b34801561048f57600080fd5b506104aa60048036038101906104a591906139ef565b612979565b6040516104b7919061422d565b60405180910390f35b3480156104cc57600080fd5b506104e760048036038101906104e29190614024565b612a57565b005b3480156104f557600080fd5b506104fe612e99565b60405161050b9190614257565b60405180910390f35b34801561052057600080fd5b5061053b60048036038101906105369190614272565b612ead565b60405161054b94939291906142c1565b60405180910390f35b34801561056057600080fd5b5061057b60048036038101906105769190614024565b612f22565b005b34801561058957600080fd5b5061059261334a565b60405161059f9190614315565b60405180910390f35b6060838061ffff166000111580156105d85750600360149054906101000a900461ffff1661ffff168161ffff1611155b610617576040517f08c379a000000000000000000000000000000000000000000000000000000000815260040161060e9061437c565b60405180910390fd5b838361062282613364565b61016d8160ff161115801561063a575060008160ff16115b610679576040517f08c379a0000000000000000000000000000000000000000000000000000000008152600401610670906143e8565b60405180910390fd5b6000808660ff1667ffffffffffffffff81111561069957610698613a21565b5b6040519080825280602002602001820160405280156106c75781602001602082028036833780820191505090505b5090505b8660ff168260ff1610156108ac576000600760008b61ffff1661ffff1681526020019081526020016000206000620151808560ff1661070a9190614446565b62ffffff168b61071a9190614483565b81526020019081526020016000206040518060600160405290816000820160009054906101000a900460ff1615151515815260200160018201805461075e906144e6565b80601f016020809104026020016040519081016040528092919081815260200182805461078a906144e6565b80156107d75780601f106107ac576101008083540402835291602001916107d7565b820191906000526020600020905b8154815290600101906020018083116107ba57829003601f168201915b505050505081526020016002820160009054906101000a900473ffffffffffffffffffffffffffffffffffffffff1673ffffffffffffffffffffffffffffffffffffffff1673ffffffffffffffffffffffffffffffffffffffff16815250509050806000015115610898578060400151828460ff168151811061085d5761085c614517565b5b602002602001019073ffffffffffffffffffffffffffffffffffffffff16908173ffffffffffffffffffffffffffffffffffffffff16815250505b5081806108a490614546565b9250506106cb565b80955050505050509392505050565b600080546108c8906144e6565b80601f01602080910402602001604051908101604052809291908181526020018280546108f4906144e6565b80156109415780601f1061091657610100808354040283529160200191610941565b820191906000526020600020905b81548152906001019060200180831161092457829003601f168201915b505050505081565b6000600860003373ffffffffffffffffffffffffffffffffffffffff1673ffffffffffffffffffffffffffffffffffffffff1681526020019081526020016000208260ff168154811061099f5761099e614517565b5b90600052602060002090600202016000015490506000600860003373ffffffffffffffffffffffffffffffffffffffff1673ffffffffffffffffffffffffffffffffffffffff1681526020019081526020016000208360ff1681548110610a0957610a08614517565b5b906000526020600020906002020160010160009054906101000a900460ff1690506000600860003373ffffffffffffffffffffffffffffffffffffffff1673ffffffffffffffffffffffffffffffffffffffff1681526020019081526020016000208460ff1681548110610a8057610a7f614517565b5b906000526020600020906002020160010160029054906101000a900461ffff169050600083118015610ab5575060008260ff16115b610af4576040517f08c379a0000000000000000000000000000000000000000000000000000000008152600401610aeb906145bb565b60405180910390fd5b610afd836133b8565b428311610b3f576040517f08c379a0000000000000000000000000000000000000000000000000000000008152600401610b3690614627565b60405180910390fd5b60005b8260ff168160ff161015610d125760008160ff1662015180610b649190614446565b62ffffff1685610b749190614483565b905060011515600760008561ffff1661ffff168152602001908152602001600020600083815260200190815260200160002060000160009054906101000a900460ff16151514610bf9576040517f08c379a0000000000000000000000000000000000000000000000000000000008152600401610bf090614693565b60405180910390fd5b3373ffffffffffffffffffffffffffffffffffffffff16600760008561ffff1661ffff168152602001908152602001600020600083815260200190815260200160002060020160009054906101000a900473ffffffffffffffffffffffffffffffffffffffff1673ffffffffffffffffffffffffffffffffffffffff1614610cb6576040517f08c379a0000000000000000000000000000000000000000000000000000000008152600401610cad90614725565b60405180910390fd5b6000600760008561ffff1661ffff168152602001908152602001600020600083815260200190815260200160002060000160006101000a81548160ff021916908315150217905550508080610d0a90614546565b915050610b42565b50610d1c84613408565b600160009054906101000a900473ffffffffffffffffffffffffffffffffffffffff1673ffffffffffffffffffffffffffffffffffffffff166379c6506833846040518363ffffffff1660e01b8152600401610d79929190614785565b600060405180830381600087803b158015610d9357600080fd5b505af1158015610da7573d6000803e3d6000fd5b505050503373ffffffffffffffffffffffffffffffffffffffff167fa3d6a454a87b586ae409c84b0c96218631558a1d3cba4681ee6d983092d59517848487604051610df5939291906147ae565b60405180910390a250505050565b81610e0d816133b8565b6000600860003373ffffffffffffffffffffffffffffffffffffffff1673ffffffffffffffffffffffffffffffffffffffff1681526020019081526020016000208360ff1681548110610e6357610e62614517565b5b906000526020600020906002020160010160029054906101000a900461ffff1690506000600760008361ffff1661ffff16815260200190815260200160002060008681526020019081526020016000206040518060600160405290816000820160009054906101000a900460ff16151515158152602001600182018054610ee9906144e6565b80601f0160208091040260200160405190810160405280929190818152602001828054610f15906144e6565b8015610f625780601f10610f3757610100808354040283529160200191610f62565b820191906000526020600020905b815481529060010190602001808311610f4557829003601f168201915b505050505081526020016002820160009054906101000a900473ffffffffffffffffffffffffffffffffffffffff1673ffffffffffffffffffffffffffffffffffffffff1673ffffffffffffffffffffffffffffffffffffffff168152505090508060000151611007576040517f08c379a0000000000000000000000000000000000000000000000000000000008152600401610ffe90614857565b60405180910390fd5b3373ffffffffffffffffffffffffffffffffffffffff16816040015173ffffffffffffffffffffffffffffffffffffffff1614611079576040517f08c379a0000000000000000000000000000000000000000000000000000000008152600401611070906148c3565b60405180910390fd5b60086000826040015173ffffffffffffffffffffffffffffffffffffffff1673ffffffffffffffffffffffffffffffffffffffff1681526020019081526020016000208460ff16815481106110d1576110d0614517565b5b906000526020600020906002020160010160019054906101000a900460ff1661112f576040517f08c379a000000000000000000000000000000000000000000000000000000000815260040161112690614955565b60405180910390fd5b60005b60068160ff1610156111db57868160ff166006811061115457611153614517565b5b602002015160ff166000111580156111895750600a878260ff166006811061117f5761117e614517565b5b602002015160ff16105b6111c8576040517f08c379a00000000000000000000000000000000000000000000000000000000081526004016111bf906149c1565b60405180910390fd5b80806111d390614546565b915050611132565b50856040516020016111ed9190614a8c565b6040516020818303038152906040528051906020012060001c600560008461ffff1661ffff168152602001908152602001600020600001819055506001600560008461ffff1661ffff16815260200190815260200160002060010160006101000a81548160ff021916908315150217905550806040015173ffffffffffffffffffffffffffffffffffffffff167fd826f21f737182bf828b63f749427fc75ffb76e1c1489baf5ca641e1fca4c328426040516112a99190613c08565b60405180910390a2505050505050565b6000600260009054906101000a900473ffffffffffffffffffffffffffffffffffffffff1673ffffffffffffffffffffffffffffffffffffffff16638c8d98a08585856040518463ffffffff1660e01b815260040161131a93929190614aa7565b602060405180830381865afa158015611337573d6000803e3d6000fd5b505050506040513d601f19601f8201168201806040525081019061135b9190614af3565b90509392505050565b61136c6136b1565b81611376816133b8565b600760008561ffff1661ffff16815260200190815260200160002060008481526020019081526020016000206040518060600160405290816000820160009054906101000a900460ff161515151581526020016001820180546113d8906144e6565b80601f0160208091040260200160405190810160405280929190818152602001828054611404906144e6565b80156114515780601f1061142657610100808354040283529160200191611451565b820191906000526020600020905b81548152906001019060200180831161143457829003601f168201915b505050505081526020016002820160009054906101000a900473ffffffffffffffffffffffffffffffffffffffff1673ffffffffffffffffffffffffffffffffffffffff1673ffffffffffffffffffffffffffffffffffffffff168152505091505092915050565b816114c3816133b8565b6000600860003373ffffffffffffffffffffffffffffffffffffffff1673ffffffffffffffffffffffffffffffffffffffff1681526020019081526020016000208360ff168154811061151957611518614517565b5b906000526020600020906002020160010160029054906101000a900461ffff1690506000600760008361ffff1661ffff16815260200190815260200160002060008681526020019081526020016000206040518060600160405290816000820160009054906101000a900460ff1615151515815260200160018201805461159f906144e6565b80601f01602080910402602001604051908101604052809291908181526020018280546115cb906144e6565b80156116185780601f106115ed57610100808354040283529160200191611618565b820191906000526020600020905b8154815290600101906020018083116115fb57829003601f168201915b505050505081526020016002820160009054906101000a900473ffffffffffffffffffffffffffffffffffffffff1673ffffffffffffffffffffffffffffffffffffffff1673ffffffffffffffffffffffffffffffffffffffff1681525050905080600001516116bd576040517f08c379a00000000000000000000000000000000000000000000000000000000081526004016116b490614857565b60405180910390fd5b3373ffffffffffffffffffffffffffffffffffffffff16816040015173ffffffffffffffffffffffffffffffffffffffff161461172f576040517f08c379a0000000000000000000000000000000000000000000000000000000008152600401611726906148c3565b60405180910390fd5b60086000826040015173ffffffffffffffffffffffffffffffffffffffff1673ffffffffffffffffffffffffffffffffffffffff1681526020019081526020016000208460ff168154811061178757611786614517565b5b906000526020600020906002020160010160019054906101000a900460ff166117e5576040517f08c379a00000000000000000000000000000000000000000000000000000000081526004016117dc90614b92565b60405180910390fd5b60001515600660008461ffff1661ffff16815260200190815260200160002060009054906101000a900460ff16151514611854576040517f08c379a000000000000000000000000000000000000000000000000000000000815260040161184b90614bfe565b60405180910390fd5b60011515600560008461ffff1661ffff16815260200190815260200160002060010160009054906101000a900460ff161515146118c6576040517f08c379a00000000000000000000000000000000000000000000000000000000081526004016118bd90614c6a565b60405180910390fd5b856040516020016118d79190614a8c565b6040516020818303038152906040528051906020012060001c600560008461ffff1661ffff168152602001908152602001600020600001541461194f576040517f08c379a000000000000000000000000000000000000000000000000000000000815260040161194690614cd6565b60405180910390fd5b6001600660008461ffff1661ffff16815260200190815260200160002060006101000a81548160ff021916908315150217905550806040015173ffffffffffffffffffffffffffffffffffffffff167f3c3a029638e50549fcf21d2bc98c74b6f2cbc3a0539148a77068067a5fa835d5426040516119cd9190613c08565b60405180910390a2505050505050565b60003411611a20576040517f08c379a0000000000000000000000000000000000000000000000000000000008152600401611a1790614d42565b60405180910390fd5b80600360169054906101000a900467ffffffffffffffff16611a429190614d62565b67ffffffffffffffff16341015611a8e576040517f08c379a0000000000000000000000000000000000000000000000000000000008152600401611a8590614deb565b60405180910390fd5b6000600360009054906101000a900473ffffffffffffffffffffffffffffffffffffffff1673ffffffffffffffffffffffffffffffffffffffff1682600360169054906101000a900467ffffffffffffffff16611aeb9190614d62565b67ffffffffffffffff16604051611b0190614e3c565b60006040518083038185875af1925050503d8060008114611b3e576040519150601f19603f3d011682016040523d82523d6000602084013e611b43565b606091505b5050905080611b87576040517f08c379a0000000000000000000000000000000000000000000000000000000008152600401611b7e90614e9d565b60405180910390fd5b600082600360169054906101000a900467ffffffffffffffff16611bab9190614d62565b67ffffffffffffffff1634611bc09190614ebd565b905060008167ffffffffffffffff161115611c27573373ffffffffffffffffffffffffffffffffffffffff166108fc8267ffffffffffffffff169081150290604051600060405180830381858888f19350505050158015611c25573d6000803e3d6000fd5b505b600160009054906101000a900473ffffffffffffffffffffffffffffffffffffffff1673ffffffffffffffffffffffffffffffffffffffff166379c6506833856040518363ffffffff1660e01b8152600401611c84929190614f22565b600060405180830381600087803b158015611c9e57600080fd5b505af1158015611cb2573d6000803e3d6000fd5b505050503373ffffffffffffffffffffffffffffffffffffffff167fef3994179b0230a18df9ee1700885c1c5ee5d13c646f1ea898572e5df8761d5484600360169054906101000a900467ffffffffffffffff16604051611d14929190614f4b565b60405180910390a2505050565b6000600660008361ffff1661ffff16815260200190815260200160002060009054906101000a900460ff169050919050565b6000600160009054906101000a900473ffffffffffffffffffffffffffffffffffffffff1673ffffffffffffffffffffffffffffffffffffffff166370a08231836040518263ffffffff1660e01b8152600401611db09190614f74565b602060405180830381865afa158015611dcd573d6000803e3d6000fd5b505050506040513d601f19601f82011682018060405250810190611df19190614af3565b9050919050565b6060600860008373ffffffffffffffffffffffffffffffffffffffff1673ffffffffffffffffffffffffffffffffffffffff168152602001908152602001600020805480602002602001604051908101604052809291908181526020016000905b82821015611eed5783829060005260206000209060020201604051806080016040529081600082015481526020016001820160009054906101000a900460ff1660ff1660ff1681526020016001820160019054906101000a900460ff161515151581526020016001820160029054906101000a900461ffff1661ffff1661ffff168152505081526020019060010190611e59565b505050509050919050565b600160009054906101000a900473ffffffffffffffffffffffffffffffffffffffff1681565b81611f28816133b8565b6000600860003373ffffffffffffffffffffffffffffffffffffffff1673ffffffffffffffffffffffffffffffffffffffff1681526020019081526020016000208360ff1681548110611f7e57611f7d614517565b5b906000526020600020906002020160010160029054906101000a900461ffff1690506000600760008361ffff1661ffff16815260200190815260200160002060008681526020019081526020016000206040518060600160405290816000820160009054906101000a900460ff16151515158152602001600182018054612004906144e6565b80601f0160208091040260200160405190810160405280929190818152602001828054612030906144e6565b801561207d5780601f106120525761010080835404028352916020019161207d565b820191906000526020600020905b81548152906001019060200180831161206057829003601f168201915b505050505081526020016002820160009054906101000a900473ffffffffffffffffffffffffffffffffffffffff1673ffffffffffffffffffffffffffffffffffffffff1673ffffffffffffffffffffffffffffffffffffffff168152505090508060000151612122576040517f08c379a000000000000000000000000000000000000000000000000000000000815260040161211990614857565b60405180910390fd5b3373ffffffffffffffffffffffffffffffffffffffff16816040015173ffffffffffffffffffffffffffffffffffffffff1614612194576040517f08c379a000000000000000000000000000000000000000000000000000000000815260040161218b906148c3565b60405180910390fd5b60011515600860003373ffffffffffffffffffffffffffffffffffffffff1673ffffffffffffffffffffffffffffffffffffffff1681526020019081526020016000208560ff16815481106121ec576121eb614517565b5b906000526020600020906002020160010160019054906101000a900460ff1615150361224d576040517f08c379a000000000000000000000000000000000000000000000000000000000815260040161224490614fdb565b60405180910390fd5b6001600860003373ffffffffffffffffffffffffffffffffffffffff1673ffffffffffffffffffffffffffffffffffffffff1681526020019081526020016000208560ff16815481106122a3576122a2614517565b5b906000526020600020906002020160010160016101000a81548160ff0219169083151502179055503373ffffffffffffffffffffffffffffffffffffffff167fdddb6e14f7f2101397a6526aab95e964de7f1f44ed06aa47a1c9a0e6b9924456426040516123119190613c08565b60405180910390a25050505050565b600360009054906101000a900473ffffffffffffffffffffffffffffffffffffffff1673ffffffffffffffffffffffffffffffffffffffff163373ffffffffffffffffffffffffffffffffffffffff16146123b0576040517f08c379a00000000000000000000000000000000000000000000000000000000081526004016123a790615047565b60405180910390fd5b60008167ffffffffffffffff16116123fd576040517f08c379a00000000000000000000000000000000000000000000000000000000081526004016123f4906150b3565b60405180910390fd5b7f77faaf6939a2630a2ba13517d99b9033741224f833291e662af2a4374f75f660600360169054906101000a900467ffffffffffffffff16826040516124449291906150d3565b60405180910390a180600360166101000a81548167ffffffffffffffff021916908367ffffffffffffffff16021790555050565b838061ffff166000111580156124a65750600360149054906101000a900461ffff1661ffff168161ffff1611155b6124e5576040517f08c379a00000000000000000000000000000000000000000000000000000000081526004016124dc9061437c565b60405180910390fd5b83600081510361252a576040517f08c379a000000000000000000000000000000000000000000000000000000000815260040161252190615148565b60405180910390fd5b83612534816133b8565b8360008160ff161161257b576040517f08c379a0000000000000000000000000000000000000000000000000000000008152600401612572906151b4565b60405180910390fd5b600160009054906101000a900473ffffffffffffffffffffffffffffffffffffffff1673ffffffffffffffffffffffffffffffffffffffff1663d1df306c33876040518363ffffffff1660e01b81526004016125d8929190614785565b600060405180830381600087803b1580156125f257600080fd5b505af1158015612606573d6000803e3d6000fd5b5050505060005b8560ff168160ff1610156127d35760011515600760008b61ffff1661ffff16815260200190815260200160002060008360ff166201518061264e9190614446565b62ffffff168a61265e9190614483565b815260200190815260200160002060000160009054906101000a900460ff161515036126bf576040517f08c379a00000000000000000000000000000000000000000000000000000000081526004016126b690615246565b60405180910390fd5b60405180606001604052806001151581526020018981526020013373ffffffffffffffffffffffffffffffffffffffff16815250600760008b61ffff1661ffff16815260200190815260200160002060008360ff16620151806127229190614446565b62ffffff168a6127329190614483565b815260200190815260200160002060008201518160000160006101000a81548160ff02191690831515021790555060208201518160010190816127759190615408565b5060408201518160020160006101000a81548173ffffffffffffffffffffffffffffffffffffffff021916908373ffffffffffffffffffffffffffffffffffffffff16021790555090505080806127cb90614546565b91505061260d565b50600860003373ffffffffffffffffffffffffffffffffffffffff1673ffffffffffffffffffffffffffffffffffffffff16815260200190815260200160002060405180608001604052808881526020018760ff1681526020016000151581526020018a61ffff1681525090806001815401808255809150506001900390600052602060002090600202016000909190919091506000820151816000015560208201518160010160006101000a81548160ff021916908360ff16021790555060408201518160010160016101000a81548160ff02191690831515021790555060608201518160010160026101000a81548161ffff021916908361ffff16021790555050503373ffffffffffffffffffffffffffffffffffffffff167fc5a2baf4d2037971b8ab82e24faec0484f144dab6377694d628ce3e3ef35e7b487878b604051612921939291906154da565b60405180910390a25050505050505050565b60066020528060005260406000206000915054906101000a900460ff1681565b600360009054906101000a900473ffffffffffffffffffffffffffffffffffffffff1681565b6129816136ea565b600860003373ffffffffffffffffffffffffffffffffffffffff1673ffffffffffffffffffffffffffffffffffffffff1681526020019081526020016000208260ff16815481106129d5576129d4614517565b5b9060005260206000209060020201604051806080016040529081600082015481526020016001820160009054906101000a900460ff1660ff1660ff1681526020016001820160019054906101000a900460ff161515151581526020016001820160029054906101000a900461ffff1661ffff1661ffff16815250509050919050565b81612a61816133b8565b6000600860003373ffffffffffffffffffffffffffffffffffffffff1673ffffffffffffffffffffffffffffffffffffffff1681526020019081526020016000208360ff1681548110612ab757612ab6614517565b5b906000526020600020906002020160010160029054906101000a900461ffff1690506000600760008361ffff1661ffff16815260200190815260200160002060008681526020019081526020016000206040518060600160405290816000820160009054906101000a900460ff16151515158152602001600182018054612b3d906144e6565b80601f0160208091040260200160405190810160405280929190818152602001828054612b69906144e6565b8015612bb65780601f10612b8b57610100808354040283529160200191612bb6565b820191906000526020600020905b815481529060010190602001808311612b9957829003601f168201915b505050505081526020016002820160009054906101000a900473ffffffffffffffffffffffffffffffffffffffff1673ffffffffffffffffffffffffffffffffffffffff1673ffffffffffffffffffffffffffffffffffffffff168152505090508060000151612c5b576040517f08c379a0000000000000000000000000000000000000000000000000000000008152600401612c5290614857565b60405180910390fd5b3373ffffffffffffffffffffffffffffffffffffffff16816040015173ffffffffffffffffffffffffffffffffffffffff1614612ccd576040517f08c379a0000000000000000000000000000000000000000000000000000000008152600401612cc4906148c3565b60405180910390fd5b60011515600860003373ffffffffffffffffffffffffffffffffffffffff1673ffffffffffffffffffffffffffffffffffffffff1681526020019081526020016000208560ff1681548110612d2557612d24614517565b5b906000526020600020906002020160010160019054906101000a900460ff16151514612d86576040517f08c379a0000000000000000000000000000000000000000000000000000000008152600401612d7d9061555d565b60405180910390fd5b6000600560008461ffff1661ffff16815260200190815260200160002060010160006101000a81548160ff0219169083151502179055506000600860003373ffffffffffffffffffffffffffffffffffffffff1673ffffffffffffffffffffffffffffffffffffffff1681526020019081526020016000208560ff1681548110612e1357612e12614517565b5b906000526020600020906002020160010160016101000a81548160ff021916908315150217905550612e4484613408565b3373ffffffffffffffffffffffffffffffffffffffff167f5f56f72b1cd7de6f6d20a960c3287ccb7d1acbc0e44f96885c6ab556eae102ea42604051612e8a9190613c08565b60405180910390a25050505050565b600360149054906101000a900461ffff1681565b60086020528160005260406000208181548110612ec957600080fd5b9060005260206000209060020201600091509150508060000154908060010160009054906101000a900460ff16908060010160019054906101000a900460ff16908060010160029054906101000a900461ffff16905084565b81612f2c816133b8565b6000600860003373ffffffffffffffffffffffffffffffffffffffff1673ffffffffffffffffffffffffffffffffffffffff1681526020019081526020016000208360ff1681548110612f8257612f81614517565b5b906000526020600020906002020160010160029054906101000a900461ffff1690506000600760008361ffff1661ffff16815260200190815260200160002060008681526020019081526020016000206040518060600160405290816000820160009054906101000a900460ff16151515158152602001600182018054613008906144e6565b80601f0160208091040260200160405190810160405280929190818152602001828054613034906144e6565b80156130815780601f1061305657610100808354040283529160200191613081565b820191906000526020600020905b81548152906001019060200180831161306457829003601f168201915b505050505081526020016002820160009054906101000a900473ffffffffffffffffffffffffffffffffffffffff1673ffffffffffffffffffffffffffffffffffffffff1673ffffffffffffffffffffffffffffffffffffffff168152505090508060000151613126576040517f08c379a000000000000000000000000000000000000000000000000000000000815260040161311d90614857565b60405180910390fd5b3373ffffffffffffffffffffffffffffffffffffffff16816040015173ffffffffffffffffffffffffffffffffffffffff1614613198576040517f08c379a000000000000000000000000000000000000000000000000000000000815260040161318f906148c3565b60405180910390fd5b60086000826040015173ffffffffffffffffffffffffffffffffffffffff1673ffffffffffffffffffffffffffffffffffffffff1681526020019081526020016000208460ff16815481106131f0576131ef614517565b5b906000526020600020906002020160010160019054906101000a900460ff1661324e576040517f08c379a0000000000000000000000000000000000000000000000000000000008152600401613245906155ef565b60405180910390fd5b60011515600660008461ffff1661ffff16815260200190815260200160002060009054906101000a900460ff161515146132bd576040517f08c379a00000000000000000000000000000000000000000000000000000000081526004016132b49061565b565b60405180910390fd5b6000600660008461ffff1661ffff16815260200190815260200160002060006101000a81548160ff021916908315150217905550806040015173ffffffffffffffffffffffffffffffffffffffff167fe85a5ce681f084327d67d7953b5e80a0b2a6d1150ca58b700b61259d7276ae3d4260405161333b9190613c08565b60405180910390a25050505050565b600360169054906101000a900467ffffffffffffffff1681565b6000620151808261337591906156aa565b146133b5576040517f08c379a00000000000000000000000000000000000000000000000000000000081526004016133ac90615773565b60405180910390fd5b50565b60045481116133fc576040517f08c379a00000000000000000000000000000000000000000000000000000000081526004016133f390615805565b60405180910390fd5b61340581613364565b50565b600860003373ffffffffffffffffffffffffffffffffffffffff1673ffffffffffffffffffffffffffffffffffffffff168152602001908152602001600020805490508160ff161061345957600080fd5b600860003373ffffffffffffffffffffffffffffffffffffffff1673ffffffffffffffffffffffffffffffffffffffff1681526020019081526020016000206001600860003373ffffffffffffffffffffffffffffffffffffffff1673ffffffffffffffffffffffffffffffffffffffff168152602001908152602001600020805490506134e79190614ebd565b815481106134f8576134f7614517565b5b9060005260206000209060020201600860003373ffffffffffffffffffffffffffffffffffffffff1673ffffffffffffffffffffffffffffffffffffffff1681526020019081526020016000208260ff168154811061355a57613559614517565b5b9060005260206000209060020201600082015481600001556001820160009054906101000a900460ff168160010160006101000a81548160ff021916908360ff1602179055506001820160019054906101000a900460ff168160010160016101000a81548160ff0219169083151502179055506001820160029054906101000a900461ffff168160010160026101000a81548161ffff021916908361ffff160217905550905050600860003373ffffffffffffffffffffffffffffffffffffffff1673ffffffffffffffffffffffffffffffffffffffff1681526020019081526020016000208054806136505761364f615825565b5b60019003818190600052602060002090600202016000808201600090556001820160006101000a81549060ff02191690556001820160016101000a81549060ff02191690556001820160026101000a81549061ffff02191690555050905550565b604051806060016040528060001515815260200160608152602001600073ffffffffffffffffffffffffffffffffffffffff1681525090565b604051806080016040528060008152602001600060ff168152602001600015158152602001600061ffff1681525090565b6000604051905090565b600080fd5b600080fd5b600061ffff82169050919050565b6137468161372f565b811461375157600080fd5b50565b6000813590506137638161373d565b92915050565b6000819050919050565b61377c81613769565b811461378757600080fd5b50565b60008135905061379981613773565b92915050565b600060ff82169050919050565b6137b58161379f565b81146137c057600080fd5b50565b6000813590506137d2816137ac565b92915050565b6000806000606084860312156137f1576137f0613725565b5b60006137ff86828701613754565b93505060206138108682870161378a565b9250506040613821868287016137c3565b9150509250925092565b600081519050919050565b600082825260208201905092915050565b6000819050602082019050919050565b600073ffffffffffffffffffffffffffffffffffffffff82169050919050565b600061388282613857565b9050919050565b61389281613877565b82525050565b60006138a48383613889565b60208301905092915050565b6000602082019050919050565b60006138c88261382b565b6138d28185613836565b93506138dd83613847565b8060005b8381101561390e5781516138f58882613898565b9750613900836138b0565b9250506001810190506138e1565b5085935050505092915050565b6000602082019050818103600083015261393581846138bd565b905092915050565b600081519050919050565b600082825260208201905092915050565b60005b8381101561397757808201518184015260208101905061395c565b60008484015250505050565b6000601f19601f8301169050919050565b600061399f8261393d565b6139a98185613948565b93506139b9818560208601613959565b6139c281613983565b840191505092915050565b600060208201905081810360008301526139e78184613994565b905092915050565b600060208284031215613a0557613a04613725565b5b6000613a13848285016137c3565b91505092915050565b600080fd5b7f4e487b7100000000000000000000000000000000000000000000000000000000600052604160045260246000fd5b613a5982613983565b810181811067ffffffffffffffff82111715613a7857613a77613a21565b5b80604052505050565b6000613a8b61371b565b9050613a978282613a50565b919050565b600067ffffffffffffffff821115613ab757613ab6613a21565b5b602082029050919050565b600080fd5b6000613ada613ad584613a9c565b613a81565b90508060208402830185811115613af457613af3613ac2565b5b835b81811015613b1d5780613b0988826137c3565b845260208401935050602081019050613af6565b5050509392505050565b600082601f830112613b3c57613b3b613a1c565b5b6006613b49848285613ac7565b91505092915050565b60008060006101008486031215613b6c57613b6b613725565b5b6000613b7a86828701613b27565b93505060c0613b8b8682870161378a565b92505060e0613b9c868287016137c3565b9150509250925092565b600080600060608486031215613bbf57613bbe613725565b5b6000613bcd86828701613754565b9350506020613bde868287016137c3565b9250506040613bef868287016137c3565b9150509250925092565b613c0281613769565b82525050565b6000602082019050613c1d6000830184613bf9565b92915050565b60008060408385031215613c3a57613c39613725565b5b6000613c4885828601613754565b9250506020613c598582860161378a565b9150509250929050565b60008115159050919050565b613c7881613c63565b82525050565b600082825260208201905092915050565b6000613c9a8261393d565b613ca48185613c7e565b9350613cb4818560208601613959565b613cbd81613983565b840191505092915050565b6000606083016000830151613ce06000860182613c6f565b5060208301518482036020860152613cf88282613c8f565b9150506040830151613d0d6040860182613889565b508091505092915050565b60006020820190508181036000830152613d328184613cc8565b905092915050565b600067ffffffffffffffff82169050919050565b613d5781613d3a565b8114613d6257600080fd5b50565b600081359050613d7481613d4e565b92915050565b600060208284031215613d9057613d8f613725565b5b6000613d9e84828501613d65565b91505092915050565b600060208284031215613dbd57613dbc613725565b5b6000613dcb84828501613754565b91505092915050565b613ddd81613c63565b82525050565b6000602082019050613df86000830184613dd4565b92915050565b613e0781613877565b8114613e1257600080fd5b50565b600081359050613e2481613dfe565b92915050565b600060208284031215613e4057613e3f613725565b5b6000613e4e84828501613e15565b91505092915050565b600081519050919050565b600082825260208201905092915050565b6000819050602082019050919050565b613e8c81613769565b82525050565b613e9b8161379f565b82525050565b613eaa8161372f565b82525050565b608082016000820151613ec66000850182613e83565b506020820151613ed96020850182613e92565b506040820151613eec6040850182613c6f565b506060820151613eff6060850182613ea1565b50505050565b6000613f118383613eb0565b60808301905092915050565b6000602082019050919050565b6000613f3582613e57565b613f3f8185613e62565b9350613f4a83613e73565b8060005b83811015613f7b578151613f628882613f05565b9750613f6d83613f1d565b925050600181019050613f4e565b5085935050505092915050565b60006020820190508181036000830152613fa28184613f2a565b905092915050565b6000819050919050565b6000613fcf613fca613fc584613857565b613faa565b613857565b9050919050565b6000613fe182613fb4565b9050919050565b6000613ff382613fd6565b9050919050565b61400381613fe8565b82525050565b600060208201905061401e6000830184613ffa565b92915050565b6000806040838503121561403b5761403a613725565b5b60006140498582860161378a565b925050602061405a858286016137c3565b9150509250929050565b600080fd5b600067ffffffffffffffff82111561408457614083613a21565b5b61408d82613983565b9050602081019050919050565b82818337600083830152505050565b60006140bc6140b784614069565b613a81565b9050828152602081018484840111156140d8576140d7614064565b5b6140e384828561409a565b509392505050565b600082601f830112614100576140ff613a1c565b5b81356141108482602086016140a9565b91505092915050565b6000806000806080858703121561413357614132613725565b5b600061414187828801613754565b945050602085013567ffffffffffffffff8111156141625761416161372a565b5b61416e878288016140eb565b935050604061417f8782880161378a565b9250506060614190878288016137c3565b91505092959194509250565b60006141a782613857565b9050919050565b6141b78161419c565b82525050565b60006020820190506141d260008301846141ae565b92915050565b6080820160008201516141ee6000850182613e83565b5060208201516142016020850182613e92565b5060408201516142146040850182613c6f565b5060608201516142276060850182613ea1565b50505050565b600060808201905061424260008301846141d8565b92915050565b6142518161372f565b82525050565b600060208201905061426c6000830184614248565b92915050565b6000806040838503121561428957614288613725565b5b600061429785828601613e15565b92505060206142a88582860161378a565b9150509250929050565b6142bb8161379f565b82525050565b60006080820190506142d66000830187613bf9565b6142e360208301866142b2565b6142f06040830185613dd4565b6142fd6060830184614248565b95945050505050565b61430f81613d3a565b82525050565b600060208201905061432a6000830184614306565b92915050565b7f496e76616c696420726f6f6d2049640000000000000000000000000000000000600082015250565b6000614366600f83613948565b915061437182614330565b602082019050919050565b6000602082019050818103600083015261439581614359565b9050919050565b7f56616c69642072616e676573206172652031202d203336350000000000000000600082015250565b60006143d2601883613948565b91506143dd8261439c565b602082019050919050565b60006020820190508181036000830152614401816143c5565b9050919050565b600062ffffff82169050919050565b7f4e487b7100000000000000000000000000000000000000000000000000000000600052601160045260246000fd5b600061445182614408565b915061445c83614408565b925082820261446a81614408565b915080821461447c5761447b614417565b5b5092915050565b600061448e82613769565b915061449983613769565b92508282019050808211156144b1576144b0614417565b5b92915050565b7f4e487b7100000000000000000000000000000000000000000000000000000000600052602260045260246000fd5b600060028204905060018216806144fe57607f821691505b602082108103614511576145106144b7565b5b50919050565b7f4e487b7100000000000000000000000000000000000000000000000000000000600052603260045260246000fd5b60006145518261379f565b915060ff820361456457614563614417565b5b600182019050919050565b7f6e6f20626f6f6b696e6720666f756e64206174207468617420696e6465780000600082015250565b60006145a5601e83613948565b91506145b08261456f565b602082019050919050565b600060208201905081810360008301526145d481614598565b9050919050565b7f63616e6e6f742063616e63656c206576656e747320696e207468652070617374600082015250565b6000614611602083613948565b915061461c826145db565b602082019050919050565b6000602082019050818103600083015261464081614604565b9050919050565b7f4170706f696e746d656e7420646f6573206e6f74206578697374000000000000600082015250565b600061467d601a83613948565b915061468882614647565b602082019050919050565b600060208201905081810360008301526146ac81614670565b9050919050565b7f43616e6e6f7420726566756e6420616e206170706f696e746d656e74206d736760008201527f2e73656e64657220646964206e6f742063726561746500000000000000000000602082015250565b600061470f603683613948565b915061471a826146b3565b604082019050919050565b6000602082019050818103600083015261473e81614702565b9050919050565b61474e81613877565b82525050565b600061476f61476a6147658461379f565b613faa565b613769565b9050919050565b61477f81614754565b82525050565b600060408201905061479a6000830185614745565b6147a76020830184614776565b9392505050565b60006060820190506147c36000830186613bf9565b6147d06020830185614776565b6147dd60408301846142b2565b949350505050565b7f4e6f206170706f696e746d656e7420657869737473206174207468697320746960008201527f6d657374616d7000000000000000000000000000000000000000000000000000602082015250565b6000614841602783613948565b915061484c826147e5565b604082019050919050565b6000602082019050818103600083015261487081614834565b9050919050565b7f596f7520646f206e6f74206f776e2074686973206170706f696e746d656e7400600082015250565b60006148ad601f83613948565b91506148b882614877565b602082019050919050565b600060208201905081810360008301526148dc816148a0565b9050919050565b7f55736572206d75737420626520636865636b656420696e20746f2067656e657260008201527f6174652061206f6e652d74696d6520636f646500000000000000000000000000602082015250565b600061493f603383613948565b915061494a826148e3565b604082019050919050565b6000602082019050818103600083015261496e81614932565b9050919050565b7f70617373776f7264206d75737420626520366b65746100000000000000000000600082015250565b60006149ab601683613948565b91506149b682614975565b602082019050919050565b600060208201905081810360008301526149da8161499e565b9050919050565b600060069050919050565b600081905092915050565b6000819050919050565b614a0a8161379f565b82525050565b6000614a1c8383614a01565b60208301905092915050565b6000602082019050919050565b614a3e816149e1565b614a4881846149ec565b9250614a53826149f7565b8060005b83811015614a84578151614a6b8782614a10565b9650614a7683614a28565b925050600181019050614a57565b505050505050565b6000614a988284614a35565b60c08201915081905092915050565b6000606082019050614abc6000830186614248565b614ac960208301856142b2565b614ad660408301846142b2565b949350505050565b600081519050614aed81613773565b92915050565b600060208284031215614b0957614b08613725565b5b6000614b1784828501614ade565b91505092915050565b7f55736572206d75737420626520636865636b656420696e20746f206f70656e2060008201527f6b65790000000000000000000000000000000000000000000000000000000000602082015250565b6000614b7c602383613948565b9150614b8782614b20565b604082019050919050565b60006020820190508181036000830152614bab81614b6f565b9050919050565b7f5468697320726f6f6d20697320616c7265616479206f70656e65640000000000600082015250565b6000614be8601b83613948565b9150614bf382614bb2565b602082019050919050565b60006020820190508181036000830152614c1781614bdb565b9050919050565b7f506c656173652073657420796f75722070617373776f72640000000000000000600082015250565b6000614c54601883613948565b9150614c5f82614c1e565b602082019050919050565b60006020820190508181036000830152614c8381614c47565b9050919050565b7f50617373776f726420697320696e636f72726563740000000000000000000000600082015250565b6000614cc0601583613948565b9150614ccb82614c8a565b602082019050919050565b60006020820190508181036000830152614cef81614cb3565b9050919050565b7f6d7573742073656e6420657468657220696e2072657175657374000000000000600082015250565b6000614d2c601a83613948565b9150614d3782614cf6565b602082019050919050565b60006020820190508181036000830152614d5b81614d1f565b9050919050565b6000614d6d82613d3a565b9150614d7883613d3a565b9250828202614d8681613d3a565b9150808214614d9857614d97614417565b5b5092915050565b7f6e6f7420656e6f7567682065746865722073656e7420696e2072657175657374600082015250565b6000614dd5602083613948565b9150614de082614d9f565b602082019050919050565b60006020820190508181036000830152614e0481614dc8565b9050919050565b600081905092915050565b50565b6000614e26600083614e0b565b9150614e3182614e16565b600082019050919050565b6000614e4782614e19565b9150819050919050565b7f4661696c656420746f2073656e64204574686572000000000000000000000000600082015250565b6000614e87601483613948565b9150614e9282614e51565b602082019050919050565b60006020820190508181036000830152614eb681614e7a565b9050919050565b6000614ec882613769565b9150614ed383613769565b9250828203905081811115614eeb57614eea614417565b5b92915050565b6000614f0c614f07614f0284613d3a565b613faa565b613769565b9050919050565b614f1c81614ef1565b82525050565b6000604082019050614f376000830185614745565b614f446020830184614f13565b9392505050565b6000604082019050614f606000830185614f13565b614f6d6020830184614306565b9392505050565b6000602082019050614f896000830184614745565b92915050565b7f596f75206861766520616c726561647920636865636b656420696e0000000000600082015250565b6000614fc5601b83613948565b9150614fd082614f8f565b602082019050919050565b60006020820190508181036000830152614ff481614fb8565b9050919050565b7f6f776e657220726573747269637465642066756e74696f6e616c697479000000600082015250565b6000615031601d83613948565b915061503c82614ffb565b602082019050919050565b6000602082019050818103600083015261506081615024565b9050919050565b7f4e6577207072696365206d757374206265206d6f7265207468616e207a65726f600082015250565b600061509d602083613948565b91506150a882615067565b602082019050919050565b600060208201905081810360008301526150cc81615090565b9050919050565b60006040820190506150e86000830185614306565b6150f56020830184614306565b9392505050565b7f5061727479206e616d652063616e6e6f7420626520626c616e6b000000000000600082015250565b6000615132601a83613948565b915061513d826150fc565b602082019050919050565b6000602082019050818103600083015261516181615125565b9050919050565b7f4d75737420626520612076616c75652061626f76652030000000000000000000600082015250565b600061519e601783613948565b91506151a982615168565b602082019050919050565b600060208201905081810360008301526151cd81615191565b9050919050565b7f4170706f696e746d656e7420616c726561647920657869737473206f6e206f6e60008201527f65206f72206d6f7265206f662074686520726571756573746564206461746573602082015250565b6000615230604083613948565b915061523b826151d4565b604082019050919050565b6000602082019050818103600083015261525f81615223565b9050919050565b60008190508160005260206000209050919050565b60006020601f8301049050919050565b600082821b905092915050565b6000600883026152c87fffffffffffffffffffffffffffffffffffffffffffffffffffffffffffffffff8261528b565b6152d2868361528b565b95508019841693508086168417925050509392505050565b60006153056153006152fb84613769565b613faa565b613769565b9050919050565b6000819050919050565b61531f836152ea565b61533361532b8261530c565b848454615298565b825550505050565b600090565b61534861533b565b615353818484615316565b505050565b5b818110156153775761536c600082615340565b600181019050615359565b5050565b601f8211156153bc5761538d81615266565b6153968461527b565b810160208510156153a5578190505b6153b96153b18561527b565b830182615358565b50505b505050565b600082821c905092915050565b60006153df600019846008026153c1565b1980831691505092915050565b60006153f883836153ce565b9150826002028217905092915050565b6154118261393d565b67ffffffffffffffff81111561542a57615429613a21565b5b61543482546144e6565b61543f82828561537b565b600060209050601f8311600181146154725760008415615460578287015190505b61546a85826153ec565b8655506154d2565b601f19841661548086615266565b60005b828110156154a857848901518255600182019150602085019450602081019050615483565b868310156154c557848901516154c1601f8916826153ce565b8355505b6001600288020188555050505b505050505050565b60006060820190506154ef6000830186613bf9565b6154fc6020830185614776565b6155096040830184614248565b949350505050565b7f596f752068617665206e6f7420636865636b656420696e000000000000000000600082015250565b6000615547601783613948565b915061555282615511565b602082019050919050565b600060208201905081810360008301526155768161553a565b9050919050565b7f55736572206d75737420626520636865636b656420696e20746f206c6f636b2060008201527f746865206b657900000000000000000000000000000000000000000000000000602082015250565b60006155d9602783613948565b91506155e48261557d565b604082019050919050565b60006020820190508181036000830152615608816155cc565b9050919050565b7f5468697320726f6f6d20697320616c726561647920636c6f7365640000000000600082015250565b6000615645601b83613948565b91506156508261560f565b602082019050919050565b6000602082019050818103600083015261567481615638565b9050919050565b7f4e487b7100000000000000000000000000000000000000000000000000000000600052601260045260246000fd5b60006156b582613769565b91506156c083613769565b9250826156d0576156cf61567b565b5b828206905092915050565b7f54696d657374616d70206d757374206265206d6f642038363430303b2074727960008201527f207573696e6720676574556e697854696d657374616d7020666f72206120676960208201527f76656e206d6f6e74682c206461792c2079656172000000000000000000000000604082015250565b600061575d605483613948565b9150615768826156db565b606082019050919050565b6000602082019050818103600083015261578c81615750565b9050919050565b7f43616e6e6f7420757365206265666f7265206465706c6f792074696d6573746160008201527f6d70000000000000000000000000000000000000000000000000000000000000602082015250565b60006157ef602283613948565b91506157fa82615793565b604082019050919050565b6000602082019050818103600083015261581e816157e2565b9050919050565b7f4e487b7100000000000000000000000000000000000000000000000000000000600052603160045260246000fdfea264697066735822122093b2300ac52e09de4add5111c3da441eba6fa0502771280bddee4af83f4cc96164736f6c634300081300336080604052604051620016ae380380620016ae83398181016040528101906200002991906200016d565b6040518060400160405280600a81526020017f486f74656c546f6b656e000000000000000000000000000000000000000000008152506040518060400160405280600381526020017f48546f00000000000000000000000000000000000000000000000000000000008152508160039081620000a6919062000419565b508060049081620000b8919062000419565b50505080600560006101000a81548173ffffffffffffffffffffffffffffffffffffffff021916908373ffffffffffffffffffffffffffffffffffffffff1602179055505062000500565b600080fd5b600073ffffffffffffffffffffffffffffffffffffffff82169050919050565b6000620001358262000108565b9050919050565b620001478162000128565b81146200015357600080fd5b50565b60008151905062000167816200013c565b92915050565b60006020828403121562000186576200018562000103565b5b6000620001968482850162000156565b91505092915050565b600081519050919050565b7f4e487b7100000000000000000000000000000000000000000000000000000000600052604160045260246000fd5b7f4e487b7100000000000000000000000000000000000000000000000000000000600052602260045260246000fd5b600060028204905060018216806200022157607f821691505b602082108103620002375762000236620001d9565b5b50919050565b60008190508160005260206000209050919050565b60006020601f8301049050919050565b600082821b905092915050565b600060088302620002a17fffffffffffffffffffffffffffffffffffffffffffffffffffffffffffffffff8262000262565b620002ad868362000262565b95508019841693508086168417925050509392505050565b6000819050919050565b6000819050919050565b6000620002fa620002f4620002ee84620002c5565b620002cf565b620002c5565b9050919050565b6000819050919050565b6200031683620002d9565b6200032e620003258262000301565b8484546200026f565b825550505050565b600090565b6200034562000336565b620003528184846200030b565b505050565b5b818110156200037a576200036e6000826200033b565b60018101905062000358565b5050565b601f821115620003c95762000393816200023d565b6200039e8462000252565b81016020851015620003ae578190505b620003c6620003bd8562000252565b83018262000357565b50505b505050565b600082821c905092915050565b6000620003ee60001984600802620003ce565b1980831691505092915050565b6000620004098383620003db565b9150826002028217905092915050565b62000424826200019f565b67ffffffffffffffff81111562000440576200043f620001aa565b5b6200044c825462000208565b620004598282856200037e565b600060209050601f8311600181146200049157600084156200047c578287015190505b620004888582620003fb565b865550620004f8565b601f198416620004a1866200023d565b60005b82811015620004cb57848901518255600182019150602085019450602081019050620004a4565b86831015620004eb5784890151620004e7601f891682620003db565b8355505b6001600288020188555050505b505050505050565b61119e80620005106000396000f3fe608060405234801561001057600080fd5b50600436106100b45760003560e01c806379c650681161007157806379c65068146101a35780638da5cb5b146101bf57806395d89b41146101dd578063a9059cbb146101fb578063d1df306c1461022b578063dd62ed3e14610247576100b4565b806306fdde03146100b9578063095ea7b3146100d757806318160ddd1461010757806323b872dd14610125578063313ce5671461015557806370a0823114610173575b600080fd5b6100c1610277565b6040516100ce9190610d86565b60405180910390f35b6100f160048036038101906100ec9190610e41565b610309565b6040516100fe9190610e9c565b60405180910390f35b61010f61032c565b60405161011c9190610ec6565b60405180910390f35b61013f600480360381019061013a9190610ee1565b610336565b60405161014c9190610e9c565b60405180910390f35b61015d610365565b60405161016a9190610f50565b60405180910390f35b61018d60048036038101906101889190610f6b565b61036e565b60405161019a9190610ec6565b60405180910390f35b6101bd60048036038101906101b89190610e41565b6103b6565b005b6101c7610454565b6040516101d49190610fa7565b60405180910390f35b6101e561047a565b6040516101f29190610d86565b60405180910390f35b61021560048036038101906102109190610e41565b61050c565b6040516102229190610e9c565b60405180910390f35b61024560048036038101906102409190610e41565b61052f565b005b610261600480360381019061025c9190610fc2565b6105cd565b60405161026e9190610ec6565b60405180910390f35b60606003805461028690611031565b80601f01602080910402602001604051908101604052809291908181526020018280546102b290611031565b80156102ff5780601f106102d4576101008083540402835291602001916102ff565b820191906000526020600020905b8154815290600101906020018083116102e257829003601f168201915b5050505050905090565b600080610314610654565b905061032181858561065c565b600191505092915050565b6000600254905090565b600080610341610654565b905061034e85828561066e565b610359858585610702565b60019150509392505050565b60006012905090565b60008060008373ffffffffffffffffffffffffffffffffffffffff1673ffffffffffffffffffffffffffffffffffffffff168152602001908152602001600020549050919050565b600560009054906101000a900473ffffffffffffffffffffffffffffffffffffffff1673ffffffffffffffffffffffffffffffffffffffff163373ffffffffffffffffffffffffffffffffffffffff1614610446576040517f08c379a000000000000000000000000000000000000000000000000000000000815260040161043d906110ae565b60405180910390fd5b61045082826107f6565b5050565b600560009054906101000a900473ffffffffffffffffffffffffffffffffffffffff1681565b60606004805461048990611031565b80601f01602080910402602001604051908101604052809291908181526020018280546104b590611031565b80156105025780601f106104d757610100808354040283529160200191610502565b820191906000526020600020905b8154815290600101906020018083116104e557829003601f168201915b5050505050905090565b600080610517610654565b9050610524818585610702565b600191505092915050565b600560009054906101000a900473ffffffffffffffffffffffffffffffffffffffff1673ffffffffffffffffffffffffffffffffffffffff163373ffffffffffffffffffffffffffffffffffffffff16146105bf576040517f08c379a00000000000000000000000000000000000000000000000000000000081526004016105b6906110ae565b60405180910390fd5b6105c98282610878565b5050565b6000600160008473ffffffffffffffffffffffffffffffffffffffff1673ffffffffffffffffffffffffffffffffffffffff16815260200190815260200160002060008373ffffffffffffffffffffffffffffffffffffffff1673ffffffffffffffffffffffffffffffffffffffff16815260200190815260200160002054905092915050565b600033905090565b61066983838360016108fa565b505050565b600061067a84846105cd565b90507fffffffffffffffffffffffffffffffffffffffffffffffffffffffffffffffff81146106fc57818110156106ec578281836040517ffb8f41b20000000000000000000000000000000000000000000000000000000081526004016106e3939291906110ce565b60405180910390fd5b6106fb848484840360006108fa565b5b50505050565b600073ffffffffffffffffffffffffffffffffffffffff168373ffffffffffffffffffffffffffffffffffffffff16036107745760006040517f96c6fd1e00000000000000000000000000000000000000000000000000000000815260040161076b9190610fa7565b60405180910390fd5b600073ffffffffffffffffffffffffffffffffffffffff168273ffffffffffffffffffffffffffffffffffffffff16036107e65760006040517fec442f050000000000000000000000000000000000000000000000000000000081526004016107dd9190610fa7565b60405180910390fd5b6107f1838383610ad1565b505050565b600073ffffffffffffffffffffffffffffffffffffffff168273ffffffffffffffffffffffffffffffffffffffff16036108685760006040517fec442f0500000000000000000000000000000000000000000000000000000000815260040161085f9190610fa7565b60405180910390fd5b61087460008383610ad1565b5050565b600073ffffffffffffffffffffffffffffffffffffffff168273ffffffffffffffffffffffffffffffffffffffff16036108ea5760006040517f96c6fd1e0000000000000000000000000000000000000000000000000000000081526004016108e19190610fa7565b60405180910390fd5b6108f682600083610ad1565b5050565b600073ffffffffffffffffffffffffffffffffffffffff168473ffffffffffffffffffffffffffffffffffffffff160361096c5760006040517fe602df050000000000000000000000000000000000000000000000000000000081526004016109639190610fa7565b60405180910390fd5b600073ffffffffffffffffffffffffffffffffffffffff168373ffffffffffffffffffffffffffffffffffffffff16036109de5760006040517f94280d620000000000000000000000000000000000000000000000000000000081526004016109d59190610fa7565b60405180910390fd5b81600160008673ffffffffffffffffffffffffffffffffffffffff1673ffffffffffffffffffffffffffffffffffffffff16815260200190815260200160002060008573ffffffffffffffffffffffffffffffffffffffff1673ffffffffffffffffffffffffffffffffffffffff168152602001908152602001600020819055508015610acb578273ffffffffffffffffffffffffffffffffffffffff168473ffffffffffffffffffffffffffffffffffffffff167f8c5be1e5ebec7d5bd14f71427d1e84f3dd0314c0f7b2291e5b200ac8c7c3b92584604051610ac29190610ec6565b60405180910390a35b50505050565b600073ffffffffffffffffffffffffffffffffffffffff168373ffffffffffffffffffffffffffffffffffffffff1603610b23578060026000828254610b179190611134565b92505081905550610bf6565b60008060008573ffffffffffffffffffffffffffffffffffffffff1673ffffffffffffffffffffffffffffffffffffffff16815260200190815260200160002054905081811015610baf578381836040517fe450d38c000000000000000000000000000000000000000000000000000000008152600401610ba6939291906110ce565b60405180910390fd5b8181036000808673ffffffffffffffffffffffffffffffffffffffff1673ffffffffffffffffffffffffffffffffffffffff16815260200190815260200160002081905550505b600073ffffffffffffffffffffffffffffffffffffffff168273ffffffffffffffffffffffffffffffffffffffff1603610c3f5780600260008282540392505081905550610c8c565b806000808473ffffffffffffffffffffffffffffffffffffffff1673ffffffffffffffffffffffffffffffffffffffff168152602001908152602001600020600082825401925050819055505b8173ffffffffffffffffffffffffffffffffffffffff168373ffffffffffffffffffffffffffffffffffffffff167fddf252ad1be2c89b69c2b068fc378daa952ba7f163c4a11628f55a4df523b3ef83604051610ce99190610ec6565b60405180910390a3505050565b600081519050919050565b600082825260208201905092915050565b60005b83811015610d30578082015181840152602081019050610d15565b60008484015250505050565b6000601f19601f8301169050919050565b6000610d5882610cf6565b610d628185610d01565b9350610d72818560208601610d12565b610d7b81610d3c565b840191505092915050565b60006020820190508181036000830152610da08184610d4d565b905092915050565b600080fd5b600073ffffffffffffffffffffffffffffffffffffffff82169050919050565b6000610dd882610dad565b9050919050565b610de881610dcd565b8114610df357600080fd5b50565b600081359050610e0581610ddf565b92915050565b6000819050919050565b610e1e81610e0b565b8114610e2957600080fd5b50565b600081359050610e3b81610e15565b92915050565b60008060408385031215610e5857610e57610da8565b5b6000610e6685828601610df6565b9250506020610e7785828601610e2c565b9150509250929050565b60008115159050919050565b610e9681610e81565b82525050565b6000602082019050610eb16000830184610e8d565b92915050565b610ec081610e0b565b82525050565b6000602082019050610edb6000830184610eb7565b92915050565b600080600060608486031215610efa57610ef9610da8565b5b6000610f0886828701610df6565b9350506020610f1986828701610df6565b9250506040610f2a86828701610e2c565b9150509250925092565b600060ff82169050919050565b610f4a81610f34565b82525050565b6000602082019050610f656000830184610f41565b92915050565b600060208284031215610f8157610f80610da8565b5b6000610f8f84828501610df6565b91505092915050565b610fa181610dcd565b82525050565b6000602082019050610fbc6000830184610f98565b92915050565b60008060408385031215610fd957610fd8610da8565b5b6000610fe785828601610df6565b9250506020610ff885828601610df6565b9150509250929050565b7f4e487b7100000000000000000000000000000000000000000000000000000000600052602260045260246000fd5b6000600282049050600182168061104957607f821691505b60208210810361105c5761105b611002565b5b50919050565b7f6f776e657220726573747269637465642066756e74696f6e616c697479000000600082015250565b6000611098601d83610d01565b91506110a382611062565b602082019050919050565b600060208201905081810360008301526110c78161108b565b9050919050565b60006060820190506110e36000830186610f98565b6110f06020830185610eb7565b6110fd6040830184610eb7565b949350505050565b7f4e487b7100000000000000000000000000000000000000000000000000000000600052601160045260246000fd5b600061113f82610e0b565b915061114a83610e0b565b925082820190508082111561116257611161611105565b5b9291505056fea26469706673582212208f2e6f5d0dbced846901909d3cfb985dfc2c326672543bffe812f1d4043f970d64736f6c63430008130033608060405234801561001057600080fd5b506108c6806100206000396000f3fe608060405234801561001057600080fd5b50600436106100415760003560e01c80638c8d98a014610046578063a6f0e57714610076578063ebba3c4f146100a6575b600080fd5b610060600480360381019061005b919061051f565b6100d6565b60405161006d919061058b565b60405180910390f35b610090600480360381019061008b91906105a6565b6103f2565b60405161009d91906105ee565b60405180910390f35b6100c060048036038101906100bb9190610635565b610461565b6040516100cd919061058b565b60405180910390f35b6000806107b290505b8461ffff168161ffff16101561013a576100f8816103f2565b15610114576301e285008261010d9190610691565b9150610127565b6301e13380826101249190610691565b91505b8080610132906106c5565b9150506100df565b610142610484565b601f816000600c8110610158576101576106ef565b5b602002019060ff16908160ff1681525050610172866103f2565b156101a357601d816001600c811061018d5761018c6106ef565b5b602002019060ff16908160ff16815250506101cb565b601c816001600c81106101b9576101b86106ef565b5b602002019060ff16908160ff16815250505b601f816002600c81106101e1576101e06106ef565b5b602002019060ff16908160ff1681525050601e816003600c8110610208576102076106ef565b5b602002019060ff16908160ff1681525050601f816004600c811061022f5761022e6106ef565b5b602002019060ff16908160ff1681525050601e816005600c8110610256576102556106ef565b5b602002019060ff16908160ff1681525050601f816006600c811061027d5761027c6106ef565b5b602002019060ff16908160ff1681525050601f816007600c81106102a4576102a36106ef565b5b602002019060ff16908160ff1681525050601e816008600c81106102cb576102ca6106ef565b5b602002019060ff16908160ff1681525050601f816009600c81106102f2576102f16106ef565b5b602002019060ff16908160ff1681525050601e81600a600c8110610319576103186106ef565b5b602002019060ff16908160ff1681525050601f81600b600c81106103405761033f6106ef565b5b602002019060ff16908160ff1681525050600191505b8460ff168261ffff1610156103be5780600183610373919061071e565b61ffff16600c8110610388576103876106ef565b5b602002015160ff166201518061039e9190610754565b836103a99190610691565b925081806103b6906106c5565b925050610356565b6001846103cb9190610796565b60ff16620151806103dc9190610754565b836103e79190610691565b925050509392505050565b60008060048361040291906107fa565b61ffff1614610414576000905061045c565b600060648361042391906107fa565b61ffff1614610435576001905061045c565b60006101908361044591906107fa565b61ffff1614610457576000905061045c565b600190505b919050565b60006201518082610472919061082b565b8261047d919061085c565b9050919050565b604051806101800160405280600c90602082028036833780820191505090505090565b600080fd5b600061ffff82169050919050565b6104c3816104ac565b81146104ce57600080fd5b50565b6000813590506104e0816104ba565b92915050565b600060ff82169050919050565b6104fc816104e6565b811461050757600080fd5b50565b600081359050610519816104f3565b92915050565b600080600060608486031215610538576105376104a7565b5b6000610546868287016104d1565b93505060206105578682870161050a565b92505060406105688682870161050a565b9150509250925092565b6000819050919050565b61058581610572565b82525050565b60006020820190506105a0600083018461057c565b92915050565b6000602082840312156105bc576105bb6104a7565b5b60006105ca848285016104d1565b91505092915050565b60008115159050919050565b6105e8816105d3565b82525050565b600060208201905061060360008301846105df565b92915050565b61061281610572565b811461061d57600080fd5b50565b60008135905061062f81610609565b92915050565b60006020828403121561064b5761064a6104a7565b5b600061065984828501610620565b91505092915050565b7f4e487b7100000000000000000000000000000000000000000000000000000000600052601160045260246000fd5b600061069c82610572565b91506106a783610572565b92508282019050808211156106bf576106be610662565b5b92915050565b60006106d0826104ac565b915061ffff82036106e4576106e3610662565b5b600182019050919050565b7f4e487b7100000000000000000000000000000000000000000000000000000000600052603260045260246000fd5b6000610729826104ac565b9150610734836104ac565b9250828203905061ffff81111561074e5761074d610662565b5b92915050565b600061075f82610572565b915061076a83610572565b925082820261077881610572565b9150828204841483151761078f5761078e610662565b5b5092915050565b60006107a1826104e6565b91506107ac836104e6565b9250828203905060ff8111156107c5576107c4610662565b5b92915050565b7f4e487b7100000000000000000000000000000000000000000000000000000000600052601260045260246000fd5b6000610805826104ac565b9150610810836104ac565b9250826108205761081f6107cb565b5b828206905092915050565b600061083682610572565b915061084183610572565b925082610851576108506107cb565b5b828206905092915050565b600061086782610572565b915061087283610572565b925082820390508181111561088a57610889610662565b5b9291505056fea26469706673582212205c3368285cb79fe8733f98483c0fe83fbe565185f25687276320d18fbf59515e64736f6c63430008130033",
  "immutableReferences": {},
  "source": "//SPDX-License-Identifier: Unlicense\r\npragma solidity >=0.7.0 <0.9.0;\r\n\r\nimport \"../../node_modules/@openzeppelin/contracts/token/ERC20/ERC20.sol\";\r\nimport \"../../node_modules/@openzeppelin/contracts/utils/math/Math.sol\";\r\n\r\nimport './HotelToken.sol';\r\nimport './TimeManager.sol';\r\n\r\ncontract SmartHotel {\r\n    string public name = 'SmartHotel';\r\n    // 1 token = 1 day \r\n    HotelToken public hotelToken;\r\n    //time manager\r\n    TimeManager private timeManager;\r\n    address payable public owner;  //payable\r\n    // price of one token in ETH\r\n    uint16 public roomNum;\r\n    uint64 public hotelTokenPrice;\r\n    uint256 deployTime;\r\n    \r\n\r\n    struct RoomPass {\r\n        uint256 password;\r\n        bool set;\r\n    }\r\n\r\n    struct Appointment {  \r\n        bool isAppointment;\r\n        string partyName;\r\n        address userAddress;\r\n    }\r\n\r\n    struct UserBooking {\r\n        uint256 timestamp;\r\n        uint8 numDays;\r\n        bool isCheckedIn;\r\n        uint16 roomId;\r\n    }\r\n\r\n    mapping(uint16 => RoomPass) private roomPasses;  //roomid => roompass\r\n    mapping(uint16 => bool) public roomKeyStates;  //is room key opening\r\n    //unix time for days; key must be mod 86400\r\n    mapping(uint16 => mapping(uint256 => Appointment)) scheduleByTimestamp;  //roomiduint=>timestampuint=>appo\r\n    // set array length\r\n    mapping(address => UserBooking[]) public userBookings;\r\n\r\n    event TokenPriceChanged(uint64 oldPrice, uint64 newPrice);\r\n    event TokenBought(address indexed from, uint256 sum, uint64 price);\r\n    event AppoScheduled(address indexed from, uint256 timestamp, uint256 span, uint16 room);\r\n    event AppoRefunded(address indexed from, uint256 timestamp, uint256 span, uint8 index);\r\n    event CheckedIn(address indexed user, uint256 timestamp);\r\n    event CheckedOut(address indexed user, uint256 timestamp);\r\n    event roomPassOK(address indexed user, uint256 timestamp);\r\n    event keyOpened(address indexed user, uint256 timestamp);\r\n    event keyLocked(address indexed user, uint256 timestamp);\r\n\r\n    modifier onlyOwner() {\r\n        require(msg.sender == owner, \"owner restricted funtionality\");\r\n        _;\r\n    }\r\n\r\n    modifier validMonth(uint8 _m) {\r\n        require(_m > 0 && _m < 13, \"Month must be 1 - 12 value\");\r\n        _;\r\n    }\r\n\r\n    modifier validDay(uint8 _d) {\r\n        require(_d > 0 && _d < 32, \"Invalid day\");\r\n        _;\r\n    }\r\n\r\n    modifier validNumDays(uint8 _num) {\r\n        require(_num > 0, \"Must be a value above 0\");\r\n        _;\r\n    }\r\n\r\n    modifier validTimestamp(uint256 _t) {\r\n        validateTimestamp(_t);\r\n        _;\r\n    }\r\n\r\n    modifier validRoomId(uint16 _id) {\r\n        require(0 <= _id && _id <= roomNum, \"Invalid room Id\");\r\n        _;\r\n    }\r\n\r\n    modifier validAppoRange(uint256 _t, uint8 _r) {\r\n        isMod86400(_t);\r\n        require(_r <= 365 && _r > 0, \"Valid ranges are 1 - 365\");\r\n        _;\r\n    }\r\n\r\n    // name can't be empty\r\n    modifier validName(string memory _s) {\r\n        require(bytes(_s).length != 0, \"Party name cannot be blank\");\r\n        _;\r\n    }\r\n\r\n    constructor(\r\n        uint64 _initialPrice,\r\n        uint16 _roomNum\r\n    ) {\r\n        deployTime = block.timestamp;\r\n        hotelToken = new HotelToken(address(this));\r\n        owner = payable(msg.sender);\r\n        // timeManager Contract\r\n        timeManager = new TimeManager();\r\n        hotelTokenPrice = _initialPrice;\r\n        roomNum = _roomNum;\r\n    }\r\n\r\n    //timestamp cannot be before deployTime && must be mod 86400\r\n    //because we use unix days as our mapping keys\r\n    function validateTimestamp(uint256 _t) private view {\r\n        require(\r\n            _t > deployTime,\r\n            \"Cannot use before deploy timestamp\"\r\n        );\r\n        isMod86400(_t);\r\n    }\r\n\r\n    function isMod86400(uint256 _t) private pure {\r\n        require(\r\n            _t % 86400 == 0,\r\n            \"Timestamp must be mod 86400; try using getUnixTimestamp for a given month, day, year\"\r\n        );\r\n    }\r\n\r\n    //get a unix timestamp given month, day, year.\r\n    //Can be calculated on the front-end\r\n    //returns mod86400 uint256\r\n    function getUnixTimestamp(\r\n        uint16 _year,\r\n        uint8 _month,\r\n        uint8 _day\r\n    ) public view returns (uint256) {\r\n        return timeManager.toTimestamp(_year, _month, _day);\r\n    }\r\n\r\n    //return balanceOf a given address from our token contract\r\n    function getTokenBalance(address _addr) public view returns (uint256) {\r\n        return hotelToken.balanceOf(_addr);\r\n    }\r\n\r\n    //return all bookings for a given address\r\n    //userBookings is a dynamic array, so this function is meant to be read-only and should not be used in any state-altering functionality\r\n    function getAppoByUser(address _addr)\r\n        public\r\n        view\r\n        returns (UserBooking[] memory)\r\n    {\r\n        return userBookings[_addr];  //UserBooking\r\n    }\r\n\r\n    //Returns an array of events for a given range\r\n    //roomnum\r\n    function getAppoList(uint16 _roomId, uint256 _start, uint8 _numDays) \r\n        public\r\n        view\r\n        validRoomId(_roomId)\r\n        validAppoRange(_start, _numDays)\r\n        returns (address[] memory)\r\n    {\r\n        uint8 i = 0;\r\n        // up to 31 days in a month\r\n        address[] memory monthlyAppointments = new address[](_numDays);\r\n        for (i; i < _numDays; i++) {\r\n            Appointment memory foundAppointment = scheduleByTimestamp[_roomId][\r\n                _start + (i * 86400)\r\n            ];\r\n            if (foundAppointment.isAppointment) {\r\n                monthlyAppointments[i] = foundAppointment.userAddress;\r\n            }\r\n        }\r\n        // returns an array with the correct number of days\r\n        return monthlyAppointments;\r\n    }\r\n\r\n    //timestamp must be mod 86400 and _numDays must match total tickets\r\n    function bookAppo(\r\n        uint16 _roomId,\r\n        string memory _name,\r\n        uint256 _timestamp,\r\n        uint8 _numDays\r\n    )\r\n        public\r\n        validRoomId(_roomId)\r\n        validName(_name)\r\n        validTimestamp(_timestamp)\r\n        validNumDays(_numDays)\r\n    {\r\n        hotelToken.burnToken(msg.sender, _numDays);\r\n\r\n        for (uint8 i = 0; i < _numDays; i++) {\r\n            // Solidity reverts state changes when require is violated\r\n            // this allows us to loop through and create the necessary stateChanges in 1 for loop\r\n            require(\r\n                scheduleByTimestamp[_roomId][_timestamp + (86400 * i)].isAppointment !=\r\n                    true,\r\n                \"Appointment already exists on one or more of the requested dates\"\r\n            );\r\n            // save each booking day indexed by timestamp; this makes it easy to look up a range of days by unix uint256 mod 86400\r\n            scheduleByTimestamp[_roomId][_timestamp + (86400 * i)] = Appointment(\r\n                true,\r\n                _name,\r\n                msg.sender\r\n            );\r\n        }\r\n        // save all user timestamps in array - we can use the timestamp + numDays as keys to our primary Appointment mapping\r\n        userBookings[msg.sender].push(UserBooking(_timestamp, _numDays, false, _roomId));\r\n\r\n        emit AppoScheduled(msg.sender, _timestamp, _numDays, _roomId);\r\n    }\r\n\r\n    function removeUserBooking(uint8 _indexToDelete) internal {\r\n        require(_indexToDelete < userBookings[msg.sender].length);\r\n        userBookings[msg.sender][_indexToDelete] = userBookings[msg.sender][\r\n            userBookings[msg.sender].length - 1\r\n        ];\r\n        userBookings[msg.sender].pop();\r\n    }\r\n\r\n    //for a production app you should cap maxRedemptions for users to avoid cancellation abuse\r\n    function refundAppo(uint8 _index) public {\r\n        // first get the timestamp and numdays from timestamp from the index\r\n        //require(userBookings[msg.sender][_index].isCheckedIn != true, \"You cannot refund appo that checked in\");\r\n        uint256 timestamp = userBookings[msg.sender][_index].timestamp;\r\n        uint8 numDays = userBookings[msg.sender][_index].numDays;\r\n        uint16 roomId = userBookings[msg.sender][_index].roomId;\r\n        require(timestamp > 0 && numDays > 0, \"no booking found at that index\");\r\n        validateTimestamp(timestamp);\r\n        // cannot cancel past events\r\n        require(\r\n            timestamp > block.timestamp,\r\n            \"cannot cancel events in the past\"\r\n        );\r\n        \r\n        for (uint8 i = 0; i < numDays; i++) {\r\n            uint256 currDay = timestamp + (86400 * i);\r\n            // Solidity reverts state changes when require is violated\r\n            // this allows us to loop through and create the necessary stateChanges in 1 for loop\r\n            require(\r\n                scheduleByTimestamp[roomId][currDay].isAppointment == true,\r\n                \"Appointment does not exist\"\r\n            );\r\n            require(\r\n                scheduleByTimestamp[roomId][currDay].userAddress == msg.sender,\r\n                \"Cannot refund an appointment msg.sender did not create\"\r\n            );\r\n            // this effectively deletes the event\r\n            scheduleByTimestamp[roomId][currDay].isAppointment = false;\r\n        }\r\n        //\r\n        removeUserBooking(_index);\r\n        //\r\n        hotelToken.mintToken(msg.sender, numDays);\r\n        //UIemit\r\n        emit AppoRefunded(msg.sender, timestamp, numDays, _index);\r\n    }\r\n\r\n    //1ETH\r\n    function changeTokenPrice(uint64 _newPrice) public onlyOwner {\r\n        require(_newPrice > 0, \"New price must be more than zero\");\r\n        // emit an event w/ new and old values\r\n        emit TokenPriceChanged(hotelTokenPrice, _newPrice);\r\n        //check if msg.sender have minter role\r\n        hotelTokenPrice = _newPrice;\r\n    }\r\n\r\n    function buyTokens(uint64 _numTokens) public payable {\r\n        require(msg.value > 0, \"must send ether in request\");\r\n        require(msg.value >= (hotelTokenPrice * _numTokens), \"not enough ether sent in request\");\r\n        // transfers ETH to owner account\r\n        (bool sent, ) = owner.call{value: hotelTokenPrice * _numTokens}(\"\");  //call function\r\n        require(sent, \"Failed to send Ether\");\r\n\r\n        uint64 excessEth = uint64(msg.value - (hotelTokenPrice * _numTokens));\r\n    \r\n        if (excessEth > 0) {\r\n            payable(msg.sender).transfer(excessEth);\r\n        }\r\n        \r\n        hotelToken.mintToken(msg.sender, _numTokens);\r\n        // use hotelTokenPrice for easy human-readable USD value\r\n        emit TokenBought(msg.sender, _numTokens, hotelTokenPrice);\r\n    }\r\n\r\n    function checkIn(uint256 _timestamp, uint8 _index) public validTimestamp(_timestamp) { //\r\n        uint16 roomId = userBookings[msg.sender][_index].roomId;\r\n        Appointment memory appointment = scheduleByTimestamp[roomId][_timestamp];\r\n        //block.timestampmod86400_timestamprequire\r\n        //require(_timestamp == timeManager.marume86400(block.timestamp), \"This is not today\");  ///test\r\n        require(appointment.isAppointment, \"No appointment exists at this timestamp\");\r\n        require(appointment.userAddress == msg.sender, \"You do not own this appointment\");\r\n        require(userBookings[msg.sender][_index].isCheckedIn != true, \"You have already checked in\");\r\n\r\n        //\r\n        userBookings[msg.sender][_index].isCheckedIn = true;\r\n\r\n        emit CheckedIn(msg.sender, block.timestamp);\r\n    }\r\n\r\n    function checkOut(uint256 _timestamp, uint8 _index) public validTimestamp(_timestamp) {\r\n        uint16 roomId = userBookings[msg.sender][_index].roomId;\r\n        Appointment memory appointment = scheduleByTimestamp[roomId][_timestamp];\r\n        require(appointment.isAppointment, \"No appointment exists at this timestamp\");\r\n        require(appointment.userAddress == msg.sender, \"You do not own this appointment\");\r\n        require(userBookings[msg.sender][_index].isCheckedIn == true, \"You have not checked in\");\r\n\r\n        //\r\n        roomPasses[roomId].set = false;\r\n        userBookings[msg.sender][_index].isCheckedIn = false;\r\n        removeUserBooking(_index);  //\r\n        emit CheckedOut(msg.sender, block.timestamp);\r\n    }\r\n\r\n    //\r\n    function roomPassSet(uint8[6] memory _input, uint256 _timestamp, uint8 _index) public validTimestamp(_timestamp) {\r\n        uint16 roomId = userBookings[msg.sender][_index].roomId;\r\n        Appointment memory appointment = scheduleByTimestamp[roomId][_timestamp];\r\n        require(appointment.isAppointment, \"No appointment exists at this timestamp\");\r\n        require(appointment.userAddress == msg.sender, \"You do not own this appointment\");\r\n        require(userBookings[appointment.userAddress][_index].isCheckedIn, \"User must be checked in to generate a one-time code\");\r\n\r\n        for (uint8 i = 0; i < 6; i++) {\r\n            require(0 <= _input[i] && _input[i] < 10, \"password must be 6keta\");\r\n        }\r\n\r\n        roomPasses[roomId].password = uint256(keccak256(abi.encodePacked(_input)));//\r\n\r\n        roomPasses[roomId].set = true;  //issue\r\n        // Emit an event with the one-time code\r\n        emit roomPassOK(appointment.userAddress, block.timestamp);\r\n    }\r\n\r\n    //\r\n    function keyOpen(uint8[6] memory _input, uint256 _timestamp, uint8 _index) public validTimestamp(_timestamp) {\r\n        uint16 roomId = userBookings[msg.sender][_index].roomId;\r\n        Appointment memory appointment = scheduleByTimestamp[roomId][_timestamp];\r\n        require(appointment.isAppointment, \"No appointment exists at this timestamp\");\r\n        require(appointment.userAddress == msg.sender, \"You do not own this appointment\");\r\n        require(userBookings[appointment.userAddress][_index].isCheckedIn, \"User must be checked in to open key\");\r\n        require(roomKeyStates[roomId] == false, \"This room is already opened\");\r\n        require(roomPasses[roomId].set == true, \"Please set your password\");\r\n        require(roomPasses[roomId].password == uint256(keccak256(abi.encodePacked(_input))), \"Password is incorrect\");\r\n\r\n        roomKeyStates[roomId] = true;\r\n\r\n        emit keyOpened(appointment.userAddress, block.timestamp);  //roomnum\r\n    }\r\n\r\n    function keyLock(uint256 _timestamp, uint8 _index) public validTimestamp(_timestamp) {\r\n        uint16 roomId = userBookings[msg.sender][_index].roomId;\r\n        Appointment memory appointment = scheduleByTimestamp[roomId][_timestamp];\r\n        require(appointment.isAppointment, \"No appointment exists at this timestamp\");\r\n        require(appointment.userAddress == msg.sender, \"You do not own this appointment\");\r\n        require(userBookings[appointment.userAddress][_index].isCheckedIn, \"User must be checked in to lock the key\");\r\n        require(roomKeyStates[roomId] == true, \"This room is already closed\");\r\n        //require(roomPass.used == true, \"Room key must be used before locking\");\r\n\r\n        // Lock the room key\r\n        roomKeyStates[roomId] = false;\r\n\r\n        // Emit an event to indicate that the key is locked\r\n        emit keyLocked(appointment.userAddress, block.timestamp);\r\n    }\r\n\r\n    //\r\n    function showAppo(uint16 _roomId, uint256 _timestamp) public view validTimestamp(_timestamp) returns (Appointment memory appo) {\r\n        appo = scheduleByTimestamp[_roomId][_timestamp];\r\n    }\r\n\r\n    function isCheckedIn(uint8 _index) public view returns (UserBooking memory booking) {\r\n        booking = userBookings[msg.sender][_index];\r\n    }\r\n\r\n    function isDoorOpen(uint16 _roomId) public view returns (bool) {\r\n        return roomKeyStates[_roomId];\r\n    }\r\n}\r\n\r\n",
  "sourcePath": "C:\\Users\\Hong lab\\project\\smart-hotel\\src\\contracts\\SmartHotel.sol",
  "compiler": {
    "name": "solc",
    "version": "0.8.19+commit.7dd6d404.Emscripten.clang"
  },
  "schemaVersion": "3.4.14",
  "updatedAt": "2023-11-01T07:17:15.467Z",
  "networkType": "ethereum",
  "devdoc": {
    "kind": "dev",
    "methods": {},
    "version": 1
  },
  "userdoc": {
    "kind": "user",
    "methods": {},
    "version": 1
  }
}