{
  "contractName": "TimeManager",
  "abi": [
    {
      "inputs": [
        {
          "internalType": "uint16",
          "name": "year",
          "type": "uint16"
        }
      ],
      "name": "isLeapYear",
      "outputs": [
        {
          "internalType": "bool",
          "name": "",
          "type": "bool"
        }
      ],
      "stateMutability": "pure",
      "type": "function"
    },
    {
      "inputs": [
        {
          "internalType": "uint16",
          "name": "year",
          "type": "uint16"
        },
        {
          "internalType": "uint8",
          "name": "month",
          "type": "uint8"
        },
        {
          "internalType": "uint8",
          "name": "day",
          "type": "uint8"
        }
      ],
      "name": "toTimestamp",
      "outputs": [
        {
          "internalType": "uint256",
          "name": "timestamp",
          "type": "uint256"
        }
      ],
      "stateMutability": "pure",
      "type": "function"
    },
    {
      "inputs": [
        {
          "internalType": "uint256",
          "name": "timestamp",
          "type": "uint256"
        }
      ],
      "name": "marume86400",
      "outputs": [
        {
          "internalType": "uint256",
          "name": "",
          "type": "uint256"
        }
      ],
      "stateMutability": "pure",
      "type": "function"
    }
  ],
  "bytecode": "0x608060405234801561001057600080fd5b506108c6806100206000396000f3fe608060405234801561001057600080fd5b50600436106100415760003560e01c80638c8d98a014610046578063a6f0e57714610076578063ebba3c4f146100a6575b600080fd5b610060600480360381019061005b919061051f565b6100d6565b60405161006d919061058b565b60405180910390f35b610090600480360381019061008b91906105a6565b6103f2565b60405161009d91906105ee565b60405180910390f35b6100c060048036038101906100bb9190610635565b610461565b6040516100cd919061058b565b60405180910390f35b6000806107b290505b8461ffff168161ffff16101561013a576100f8816103f2565b15610114576301e285008261010d9190610691565b9150610127565b6301e13380826101249190610691565b91505b8080610132906106c5565b9150506100df565b610142610484565b601f816000600c8110610158576101576106ef565b5b602002019060ff16908160ff1681525050610172866103f2565b156101a357601d816001600c811061018d5761018c6106ef565b5b602002019060ff16908160ff16815250506101cb565b601c816001600c81106101b9576101b86106ef565b5b602002019060ff16908160ff16815250505b601f816002600c81106101e1576101e06106ef565b5b602002019060ff16908160ff1681525050601e816003600c8110610208576102076106ef565b5b602002019060ff16908160ff1681525050601f816004600c811061022f5761022e6106ef565b5b602002019060ff16908160ff1681525050601e816005600c8110610256576102556106ef565b5b602002019060ff16908160ff1681525050601f816006600c811061027d5761027c6106ef565b5b602002019060ff16908160ff1681525050601f816007600c81106102a4576102a36106ef565b5b602002019060ff16908160ff1681525050601e816008600c81106102cb576102ca6106ef565b5b602002019060ff16908160ff1681525050601f816009600c81106102f2576102f16106ef565b5b602002019060ff16908160ff1681525050601e81600a600c8110610319576103186106ef565b5b602002019060ff16908160ff1681525050601f81600b600c81106103405761033f6106ef565b5b602002019060ff16908160ff1681525050600191505b8460ff168261ffff1610156103be5780600183610373919061071e565b61ffff16600c8110610388576103876106ef565b5b602002015160ff166201518061039e9190610754565b836103a99190610691565b925081806103b6906106c5565b925050610356565b6001846103cb9190610796565b60ff16620151806103dc9190610754565b836103e79190610691565b925050509392505050565b60008060048361040291906107fa565b61ffff1614610414576000905061045c565b600060648361042391906107fa565b61ffff1614610435576001905061045c565b60006101908361044591906107fa565b61ffff1614610457576000905061045c565b600190505b919050565b60006201518082610472919061082b565b8261047d919061085c565b9050919050565b604051806101800160405280600c90602082028036833780820191505090505090565b600080fd5b600061ffff82169050919050565b6104c3816104ac565b81146104ce57600080fd5b50565b6000813590506104e0816104ba565b92915050565b600060ff82169050919050565b6104fc816104e6565b811461050757600080fd5b50565b600081359050610519816104f3565b92915050565b600080600060608486031215610538576105376104a7565b5b6000610546868287016104d1565b93505060206105578682870161050a565b92505060406105688682870161050a565b9150509250925092565b6000819050919050565b61058581610572565b82525050565b60006020820190506105a0600083018461057c565b92915050565b6000602082840312156105bc576105bb6104a7565b5b60006105ca848285016104d1565b91505092915050565b60008115159050919050565b6105e8816105d3565b82525050565b600060208201905061060360008301846105df565b92915050565b61061281610572565b811461061d57600080fd5b50565b60008135905061062f81610609565b92915050565b60006020828403121561064b5761064a6104a7565b5b600061065984828501610620565b91505092915050565b7f4e487b7100000000000000000000000000000000000000000000000000000000600052601160045260246000fd5b600061069c82610572565b91506106a783610572565b92508282019050808211156106bf576106be610662565b5b92915050565b60006106d0826104ac565b915061ffff82036106e4576106e3610662565b5b600182019050919050565b7f4e487b7100000000000000000000000000000000000000000000000000000000600052603260045260246000fd5b6000610729826104ac565b9150610734836104ac565b9250828203905061ffff81111561074e5761074d610662565b5b92915050565b600061075f82610572565b915061076a83610572565b925082820261077881610572565b9150828204841483151761078f5761078e610662565b5b5092915050565b60006107a1826104e6565b91506107ac836104e6565b9250828203905060ff8111156107c5576107c4610662565b5b92915050565b7f4e487b7100000000000000000000000000000000000000000000000000000000600052601260045260246000fd5b6000610805826104ac565b9150610810836104ac565b9250826108205761081f6107cb565b5b828206905092915050565b600061083682610572565b915061084183610572565b925082610851576108506107cb565b5b828206905092915050565b600061086782610572565b915061087283610572565b925082820390508181111561088a57610889610662565b5b9291505056fea26469706673582212205c3368285cb79fe8733f98483c0fe83fbe565185f25687276320d18fbf59515e64736f6c63430008130033",
  "immutableReferences": {},
  "source": "//SPDX-License-Identifier: Unlicense\r\n//github.com/pipermerriam/ethereum-datetime/blob/master/contracts/DateTime.sol\r\npragma solidity >=0.7.0 <0.9.0;\r\n\r\ncontract TimeManager {\r\n\r\n    struct Time {\r\n        uint16 year;\r\n        uint8 month;\r\n        uint8 day;\r\n        uint8 hour;\r\n        uint8 minute;\r\n        uint8 second;\r\n        uint8 weekday;\r\n    }\r\n\r\n    uint256 constant daySeconds = 86400;\r\n    uint256 constant yearSeconds = 31536000;\r\n    uint256 constant leapYearSeconds = 31622400;\r\n\r\n    uint16 constant originyear = 1970;\r\n\r\n    function isLeapYear(uint16 year) public pure returns (bool) {\r\n        if (year % 4 != 0) {\r\n            return false;\r\n        }\r\n\r\n        if (year % 100 != 0) {\r\n            return true;\r\n        }\r\n        if (year % 400 != 0) {\r\n            return false;\r\n        }\r\n\r\n        return true;\r\n    }\r\n\r\n    function toTimestamp(  //mod86400\r\n        uint16 year,\r\n        uint8 month,\r\n        uint8 day\r\n    ) public pure returns (uint256 timestamp) {\r\n        uint16 i;\r\n\r\n        // Year\r\n        for (i = originyear; i < year; i++) {\r\n            if (isLeapYear(i)) {\r\n                timestamp += leapYearSeconds;\r\n            } else {\r\n                timestamp += yearSeconds;\r\n            }\r\n        }\r\n\r\n        // Month\r\n        uint8[12] memory monthDays;\r\n        monthDays[0] = 31;\r\n        if (isLeapYear(year)) {\r\n            monthDays[1] = 29;\r\n        } else {\r\n            monthDays[1] = 28;\r\n        }\r\n        monthDays[2] = 31;\r\n        monthDays[3] = 30;\r\n        monthDays[4] = 31;\r\n        monthDays[5] = 30;\r\n        monthDays[6] = 31;\r\n        monthDays[7] = 31;\r\n        monthDays[8] = 30;\r\n        monthDays[9] = 31;\r\n        monthDays[10] = 30;\r\n        monthDays[11] = 31;\r\n\r\n        for (i = 1; i < month; i++) {\r\n            timestamp += daySeconds * monthDays[i - 1];\r\n        }\r\n\r\n        // Day\r\n        timestamp += daySeconds * (day - 1);\r\n\r\n        return timestamp;\r\n    }\r\n\r\n    function marume86400 (uint256 timestamp) public pure returns (uint256) {\r\n        return (timestamp - (timestamp % 86400));\r\n    }\r\n}\r\n",
  "sourcePath": "C:\\Users\\Hong lab\\project\\smart-hotel\\src\\contracts\\TimeManager.sol",
  "compiler": {
    "name": "solc",
    "version": "0.8.19+commit.7dd6d404.Emscripten.clang"
  },
  "schemaVersion": "3.4.14",
  "updatedAt": "2023-11-01T07:17:14.191Z",
  "devdoc": {
    "kind": "dev",
    "methods": {},
    "version": 1
  },
  "userdoc": {
    "kind": "user",
    "methods": {},
    "version": 1
  }
}